{
  "contractName": "DogeShit",
  "abi": [
    {
      "inputs": [
        {
          "internalType": "address",
          "name": "_shitMaker",
          "type": "address"
        },
        {
          "internalType": "address",
          "name": "_rewardsPool",
          "type": "address"
        }
      ],
      "stateMutability": "nonpayable",
      "type": "constructor"
    },
    {
      "anonymous": false,
      "inputs": [
        {
          "indexed": true,
          "internalType": "address",
          "name": "owner",
          "type": "address"
        },
        {
          "indexed": true,
          "internalType": "address",
          "name": "spender",
          "type": "address"
        },
        {
          "indexed": false,
          "internalType": "uint256",
          "name": "value",
          "type": "uint256"
        }
      ],
      "name": "Approval",
      "type": "event"
    },
    {
      "anonymous": false,
      "inputs": [
        {
          "indexed": true,
          "internalType": "bytes32",
          "name": "role",
          "type": "bytes32"
        },
        {
          "indexed": true,
          "internalType": "bytes32",
          "name": "previousAdminRole",
          "type": "bytes32"
        },
        {
          "indexed": true,
          "internalType": "bytes32",
          "name": "newAdminRole",
          "type": "bytes32"
        }
      ],
      "name": "RoleAdminChanged",
      "type": "event"
    },
    {
      "anonymous": false,
      "inputs": [
        {
          "indexed": true,
          "internalType": "bytes32",
          "name": "role",
          "type": "bytes32"
        },
        {
          "indexed": true,
          "internalType": "address",
          "name": "account",
          "type": "address"
        },
        {
          "indexed": true,
          "internalType": "address",
          "name": "sender",
          "type": "address"
        }
      ],
      "name": "RoleGranted",
      "type": "event"
    },
    {
      "anonymous": false,
      "inputs": [
        {
          "indexed": true,
          "internalType": "bytes32",
          "name": "role",
          "type": "bytes32"
        },
        {
          "indexed": true,
          "internalType": "address",
          "name": "account",
          "type": "address"
        },
        {
          "indexed": true,
          "internalType": "address",
          "name": "sender",
          "type": "address"
        }
      ],
      "name": "RoleRevoked",
      "type": "event"
    },
    {
      "anonymous": false,
      "inputs": [
        {
          "indexed": true,
          "internalType": "address",
          "name": "from",
          "type": "address"
        },
        {
          "indexed": true,
          "internalType": "address",
          "name": "to",
          "type": "address"
        },
        {
          "indexed": false,
          "internalType": "uint256",
          "name": "value",
          "type": "uint256"
        }
      ],
      "name": "Transfer",
      "type": "event"
    },
    {
      "inputs": [],
      "name": "DEFAULT_ADMIN_ROLE",
      "outputs": [
        {
          "internalType": "bytes32",
          "name": "",
          "type": "bytes32"
        }
      ],
      "stateMutability": "view",
      "type": "function",
      "constant": true
    },
    {
      "inputs": [],
      "name": "SHIT_BURNER_ROLE",
      "outputs": [
        {
          "internalType": "bytes32",
          "name": "",
          "type": "bytes32"
        }
      ],
      "stateMutability": "view",
      "type": "function",
      "constant": true
    },
    {
      "inputs": [],
      "name": "SHIT_MAKER_ROLE",
      "outputs": [
        {
          "internalType": "bytes32",
          "name": "",
          "type": "bytes32"
        }
      ],
      "stateMutability": "view",
      "type": "function",
      "constant": true
    },
    {
      "inputs": [
        {
          "internalType": "address",
          "name": "owner",
          "type": "address"
        },
        {
          "internalType": "address",
          "name": "spender",
          "type": "address"
        }
      ],
      "name": "allowance",
      "outputs": [
        {
          "internalType": "uint256",
          "name": "",
          "type": "uint256"
        }
      ],
      "stateMutability": "view",
      "type": "function",
      "constant": true
    },
    {
      "inputs": [
        {
          "internalType": "address",
          "name": "spender",
          "type": "address"
        },
        {
          "internalType": "uint256",
          "name": "amount",
          "type": "uint256"
        }
      ],
      "name": "approve",
      "outputs": [
        {
          "internalType": "bool",
          "name": "",
          "type": "bool"
        }
      ],
      "stateMutability": "nonpayable",
      "type": "function"
    },
    {
      "inputs": [
        {
          "internalType": "address",
          "name": "account",
          "type": "address"
        }
      ],
      "name": "balanceOf",
      "outputs": [
        {
          "internalType": "uint256",
          "name": "",
          "type": "uint256"
        }
      ],
      "stateMutability": "view",
      "type": "function",
      "constant": true
    },
    {
      "inputs": [],
      "name": "decimals",
      "outputs": [
        {
          "internalType": "uint8",
          "name": "",
          "type": "uint8"
        }
      ],
      "stateMutability": "view",
      "type": "function",
      "constant": true
    },
    {
      "inputs": [
        {
          "internalType": "address",
          "name": "spender",
          "type": "address"
        },
        {
          "internalType": "uint256",
          "name": "subtractedValue",
          "type": "uint256"
        }
      ],
      "name": "decreaseAllowance",
      "outputs": [
        {
          "internalType": "bool",
          "name": "",
          "type": "bool"
        }
      ],
      "stateMutability": "nonpayable",
      "type": "function"
    },
    {
      "inputs": [
        {
          "internalType": "bytes32",
          "name": "role",
          "type": "bytes32"
        }
      ],
      "name": "getRoleAdmin",
      "outputs": [
        {
          "internalType": "bytes32",
          "name": "",
          "type": "bytes32"
        }
      ],
      "stateMutability": "view",
      "type": "function",
      "constant": true
    },
    {
      "inputs": [
        {
          "internalType": "bytes32",
          "name": "role",
          "type": "bytes32"
        },
        {
          "internalType": "address",
          "name": "account",
          "type": "address"
        }
      ],
      "name": "grantRole",
      "outputs": [],
      "stateMutability": "nonpayable",
      "type": "function"
    },
    {
      "inputs": [
        {
          "internalType": "bytes32",
          "name": "role",
          "type": "bytes32"
        },
        {
          "internalType": "address",
          "name": "account",
          "type": "address"
        }
      ],
      "name": "hasRole",
      "outputs": [
        {
          "internalType": "bool",
          "name": "",
          "type": "bool"
        }
      ],
      "stateMutability": "view",
      "type": "function",
      "constant": true
    },
    {
      "inputs": [
        {
          "internalType": "address",
          "name": "spender",
          "type": "address"
        },
        {
          "internalType": "uint256",
          "name": "addedValue",
          "type": "uint256"
        }
      ],
      "name": "increaseAllowance",
      "outputs": [
        {
          "internalType": "bool",
          "name": "",
          "type": "bool"
        }
      ],
      "stateMutability": "nonpayable",
      "type": "function"
    },
    {
      "inputs": [],
      "name": "name",
      "outputs": [
        {
          "internalType": "string",
          "name": "",
          "type": "string"
        }
      ],
      "stateMutability": "view",
      "type": "function",
      "constant": true
    },
    {
      "inputs": [
        {
          "internalType": "bytes32",
          "name": "role",
          "type": "bytes32"
        },
        {
          "internalType": "address",
          "name": "account",
          "type": "address"
        }
      ],
      "name": "renounceRole",
      "outputs": [],
      "stateMutability": "nonpayable",
      "type": "function"
    },
    {
      "inputs": [
        {
          "internalType": "bytes32",
          "name": "role",
          "type": "bytes32"
        },
        {
          "internalType": "address",
          "name": "account",
          "type": "address"
        }
      ],
      "name": "revokeRole",
      "outputs": [],
      "stateMutability": "nonpayable",
      "type": "function"
    },
    {
      "inputs": [],
      "name": "rewardsPool",
      "outputs": [
        {
          "internalType": "address",
          "name": "",
          "type": "address"
        }
      ],
      "stateMutability": "view",
      "type": "function",
      "constant": true
    },
    {
      "inputs": [
        {
          "internalType": "bytes4",
          "name": "interfaceId",
          "type": "bytes4"
        }
      ],
      "name": "supportsInterface",
      "outputs": [
        {
          "internalType": "bool",
          "name": "",
          "type": "bool"
        }
      ],
      "stateMutability": "view",
      "type": "function",
      "constant": true
    },
    {
      "inputs": [],
      "name": "symbol",
      "outputs": [
        {
          "internalType": "string",
          "name": "",
          "type": "string"
        }
      ],
      "stateMutability": "view",
      "type": "function",
      "constant": true
    },
    {
      "inputs": [],
      "name": "totalSupply",
      "outputs": [
        {
          "internalType": "uint256",
          "name": "",
          "type": "uint256"
        }
      ],
      "stateMutability": "view",
      "type": "function",
      "constant": true
    },
    {
      "inputs": [
        {
          "internalType": "address",
          "name": "recipient",
          "type": "address"
        },
        {
          "internalType": "uint256",
          "name": "amount",
          "type": "uint256"
        }
      ],
      "name": "transfer",
      "outputs": [
        {
          "internalType": "bool",
          "name": "",
          "type": "bool"
        }
      ],
      "stateMutability": "nonpayable",
      "type": "function"
    },
    {
      "inputs": [
        {
          "internalType": "address",
          "name": "sender",
          "type": "address"
        },
        {
          "internalType": "address",
          "name": "recipient",
          "type": "address"
        },
        {
          "internalType": "uint256",
          "name": "amount",
          "type": "uint256"
        }
      ],
      "name": "transferFrom",
      "outputs": [
        {
          "internalType": "bool",
          "name": "",
          "type": "bool"
        }
      ],
      "stateMutability": "nonpayable",
      "type": "function"
    },
    {
      "inputs": [
        {
          "internalType": "address",
          "name": "to",
          "type": "address"
        },
        {
          "internalType": "uint256",
          "name": "amount",
          "type": "uint256"
        }
      ],
      "name": "mint",
      "outputs": [],
      "stateMutability": "nonpayable",
      "type": "function"
    },
    {
      "inputs": [
        {
          "internalType": "address",
          "name": "from",
          "type": "address"
        },
        {
          "internalType": "uint256",
          "name": "amount",
          "type": "uint256"
        }
      ],
      "name": "burn",
      "outputs": [],
      "stateMutability": "nonpayable",
      "type": "function"
    }
  ],
  "bytecode": "0x60806040523480156200001157600080fd5b5060405162001b1d38038062001b1d833981016040819052620000349162000647565b60405180604001604052806008815260200167111bd9d954da1a5d60c21b815250604051806040016040528060048152602001631914d21560e21b81525081600490805190602001906200008a92919062000584565b508051620000a090600590602084019062000584565b50620000b29150600090503362000148565b620000cd60008051602062001afd8339815191528362000148565b620000f97fa24ae9df21031ca649811648a1f8123af6debe58c78afae9943df1ef14273ab28262000148565b6200011460008051602062001afd8339815191528262000158565b6200012160003362000187565b600680546001600160a01b0319166001600160a01b03929092169190911790555062000836565b62000154828262000209565b5050565b600082815260208190526040902060010154620001768133620002a9565b62000182838362000209565b505050565b6001600160a01b0381163314620001fd5760405162461bcd60e51b815260206004820152602f60248201527f416363657373436f6e74726f6c3a2063616e206f6e6c792072656e6f756e636560448201526e103937b632b9903337b91039b2b63360891b60648201526084015b60405180910390fd5b62000154828262000344565b6000828152602081815260408083206001600160a01b038516845290915290205460ff1662000154576000828152602081815260408083206001600160a01b03851684529091529020805460ff19166001179055620002653390565b6001600160a01b0316816001600160a01b0316837f2f8788117e7eff1d82e926ec794901d17c78024a50270940304540a733656f0d60405160405180910390a45050565b6000828152602081815260408083206001600160a01b038516845290915290205460ff166200015457620002f3816001600160a01b03166014620003c460201b620007761760201c565b6200030983602062000776620003c4821b17811c565b6040516020016200031c9291906200067f565b60408051601f198184030181529082905262461bcd60e51b8252620001f491600401620006f8565b6000828152602081815260408083206001600160a01b038516845290915290205460ff161562000154576000828152602081815260408083206001600160a01b0385168085529252808320805460ff1916905551339285917ff6391f5c32d9c69d2a47ea670b442974b53935d1edc7fd64eb21e047a839171b9190a45050565b60606000620003d583600262000748565b620003e29060026200072d565b6001600160401b03811115620003fc57620003fc62000820565b6040519080825280601f01601f19166020018201604052801562000427576020820181803683370190505b509050600360fc1b816000815181106200044557620004456200080a565b60200101906001600160f81b031916908160001a905350600f60fb1b816001815181106200047757620004776200080a565b60200101906001600160f81b031916908160001a90535060006200049d84600262000748565b620004aa9060016200072d565b90505b60018111156200052c576f181899199a1a9b1b9c1cb0b131b232b360811b85600f1660108110620004e257620004e26200080a565b1a60f81b828281518110620004fb57620004fb6200080a565b60200101906001600160f81b031916908160001a90535060049490941c9362000524816200079d565b9050620004ad565b5083156200057d5760405162461bcd60e51b815260206004820181905260248201527f537472696e67733a20686578206c656e67746820696e73756666696369656e746044820152606401620001f4565b9392505050565b8280546200059290620007b7565b90600052602060002090601f016020900481019282620005b6576000855562000601565b82601f10620005d157805160ff191683800117855562000601565b8280016001018555821562000601579182015b8281111562000601578251825591602001919060010190620005e4565b506200060f92915062000613565b5090565b5b808211156200060f576000815560010162000614565b80516001600160a01b03811681146200064257600080fd5b919050565b600080604083850312156200065b57600080fd5b62000666836200062a565b915062000676602084016200062a565b90509250929050565b7f416363657373436f6e74726f6c3a206163636f756e7420000000000000000000815260008351620006b98160178501602088016200076a565b7001034b99036b4b9b9b4b733903937b6329607d1b6017918401918201528351620006ec8160288401602088016200076a565b01602801949350505050565b6020815260008251806020840152620007198160408501602087016200076a565b601f01601f19169190910160400192915050565b60008219821115620007435762000743620007f4565b500190565b6000816000190483118215151615620007655762000765620007f4565b500290565b60005b83811015620007875781810151838201526020016200076d565b8381111562000797576000848401525b50505050565b600081620007af57620007af620007f4565b506000190190565b600181811c90821680620007cc57607f821691505b60208210811415620007ee57634e487b7160e01b600052602260045260246000fd5b50919050565b634e487b7160e01b600052601160045260246000fd5b634e487b7160e01b600052603260045260246000fd5b634e487b7160e01b600052604160045260246000fd5b6112b780620008466000396000f3fe608060405234801561001057600080fd5b506004361061014d5760003560e01c806340c10f19116100c35780639dc29fac1161007c5780639dc29fac14610304578063a217fddf14610317578063a457c2d71461031f578063a9059cbb14610332578063d547741f14610345578063dd62ed3e1461035857600080fd5b806340c10f191461025f57806361540c8a1461027257806370a082311461029957806374053fd3146102c257806391d14854146102e957806395d89b41146102fc57600080fd5b806323b872dd1161011557806323b872dd146101df578063248a9ca3146101f25780632f2ff15d14610215578063313ce5671461022a57806336568abe14610239578063395093511461024c57600080fd5b806301ffc9a7146101525780630359fea91461017a57806306fdde03146101a5578063095ea7b3146101ba57806318160ddd146101cd575b600080fd5b61016561016036600461109d565b610391565b60405190151581526020015b60405180910390f35b60065461018d906001600160a01b031681565b6040516001600160a01b039091168152602001610171565b6101ad6103c8565b604051610171919061113c565b6101656101c8366004611037565b61045a565b6003545b604051908152602001610171565b6101656101ed366004610ffb565b610470565b6101d1610200366004611061565b60009081526020819052604090206001015490565b61022861022336600461107a565b610526565b005b60405160128152602001610171565b61022861024736600461107a565b610551565b61016561025a366004611037565b6105cf565b61022861026d366004611037565b610606565b6101d17fdef7b99b7c04bccedce46894e954320e3b829f309ae7fc313b8bada74315677b81565b6101d16102a7366004610fad565b6001600160a01b031660009081526001602052604090205490565b6101d17fa24ae9df21031ca649811648a1f8123af6debe58c78afae9943df1ef14273ab281565b6101656102f736600461107a565b61063b565b6101ad610664565b610228610312366004611037565b610673565b6101d1600081565b61016561032d366004611037565b6106a8565b610165610340366004611037565b610743565b61022861035336600461107a565b610750565b6101d1610366366004610fc8565b6001600160a01b03918216600090815260026020908152604080832093909416825291909152205490565b60006001600160e01b03198216637965db0b60e01b14806103c257506301ffc9a760e01b6001600160e01b03198316145b92915050565b6060600480546103d790611204565b80601f016020809104026020016040519081016040528092919081815260200182805461040390611204565b80156104505780601f1061042557610100808354040283529160200191610450565b820191906000526020600020905b81548152906001019060200180831161043357829003601f168201915b5050505050905090565b6000610467338484610919565b50600192915050565b600061047d848484610a3e565b6001600160a01b0384166000908152600260209081526040808320338452909152902054828110156105075760405162461bcd60e51b815260206004820152602860248201527f45524332303a207472616e7366657220616d6f756e74206578636565647320616044820152676c6c6f77616e636560c01b60648201526084015b60405180910390fd5b61051b853361051686856111a6565b610919565b506001949350505050565b6000828152602081905260409020600101546105428133610c16565b61054c8383610c7a565b505050565b6001600160a01b03811633146105c15760405162461bcd60e51b815260206004820152602f60248201527f416363657373436f6e74726f6c3a2063616e206f6e6c792072656e6f756e636560448201526e103937b632b9903337b91039b2b63360891b60648201526084016104fe565b6105cb8282610cfe565b5050565b3360008181526002602090815260408083206001600160a01b0387168452909152812054909161046791859061051690869061116f565b7fdef7b99b7c04bccedce46894e954320e3b829f309ae7fc313b8bada74315677b6106318133610c16565b61054c8383610d63565b6000918252602082815260408084206001600160a01b0393909316845291905290205460ff1690565b6060600580546103d790611204565b7fa24ae9df21031ca649811648a1f8123af6debe58c78afae9943df1ef14273ab261069e8133610c16565b61054c8383610e42565b3360009081526002602090815260408083206001600160a01b03861684529091528120548281101561072a5760405162461bcd60e51b815260206004820152602560248201527f45524332303a2064656372656173656420616c6c6f77616e63652062656c6f77604482015264207a65726f60d81b60648201526084016104fe565b610739338561051686856111a6565b5060019392505050565b6000610467338484610a3e565b60008281526020819052604090206001015461076c8133610c16565b61054c8383610cfe565b60606000610785836002611187565b61079090600261116f565b67ffffffffffffffff8111156107a8576107a861126b565b6040519080825280601f01601f1916602001820160405280156107d2576020820181803683370190505b509050600360fc1b816000815181106107ed576107ed611255565b60200101906001600160f81b031916908160001a905350600f60fb1b8160018151811061081c5761081c611255565b60200101906001600160f81b031916908160001a9053506000610840846002611187565b61084b90600161116f565b90505b60018111156108c3576f181899199a1a9b1b9c1cb0b131b232b360811b85600f166010811061087f5761087f611255565b1a60f81b82828151811061089557610895611255565b60200101906001600160f81b031916908160001a90535060049490941c936108bc816111ed565b905061084e565b5083156109125760405162461bcd60e51b815260206004820181905260248201527f537472696e67733a20686578206c656e67746820696e73756666696369656e7460448201526064016104fe565b9392505050565b6001600160a01b03831661097b5760405162461bcd60e51b8152602060048201526024808201527f45524332303a20617070726f76652066726f6d20746865207a65726f206164646044820152637265737360e01b60648201526084016104fe565b6001600160a01b0382166109dc5760405162461bcd60e51b815260206004820152602260248201527f45524332303a20617070726f766520746f20746865207a65726f206164647265604482015261737360f01b60648201526084016104fe565b6001600160a01b0383811660008181526002602090815260408083209487168084529482529182902085905590518481527f8c5be1e5ebec7d5bd14f71427d1e84f3dd0314c0f7b2291e5b200ac8c7c3b92591015b60405180910390a3505050565b6001600160a01b038316610aa25760405162461bcd60e51b815260206004820152602560248201527f45524332303a207472616e736665722066726f6d20746865207a65726f206164604482015264647265737360d81b60648201526084016104fe565b6001600160a01b038216610b045760405162461bcd60e51b815260206004820152602360248201527f45524332303a207472616e7366657220746f20746865207a65726f206164647260448201526265737360e81b60648201526084016104fe565b6001600160a01b03831660009081526001602052604090205481811015610b7c5760405162461bcd60e51b815260206004820152602660248201527f45524332303a207472616e7366657220616d6f756e7420657863656564732062604482015265616c616e636560d01b60648201526084016104fe565b610b8682826111a6565b6001600160a01b038086166000908152600160205260408082209390935590851681529081208054849290610bbc90849061116f565b92505081905550826001600160a01b0316846001600160a01b03167fddf252ad1be2c89b69c2b068fc378daa952ba7f163c4a11628f55a4df523b3ef84604051610c0891815260200190565b60405180910390a350505050565b610c20828261063b565b6105cb57610c38816001600160a01b03166014610776565b610c43836020610776565b604051602001610c549291906110c7565b60408051601f198184030181529082905262461bcd60e51b82526104fe9160040161113c565b610c84828261063b565b6105cb576000828152602081815260408083206001600160a01b03851684529091529020805460ff19166001179055610cba3390565b6001600160a01b0316816001600160a01b0316837f2f8788117e7eff1d82e926ec794901d17c78024a50270940304540a733656f0d60405160405180910390a45050565b610d08828261063b565b156105cb576000828152602081815260408083206001600160a01b0385168085529252808320805460ff1916905551339285917ff6391f5c32d9c69d2a47ea670b442974b53935d1edc7fd64eb21e047a839171b9190a45050565b6001600160a01b038216610db95760405162461bcd60e51b815260206004820152601f60248201527f45524332303a206d696e7420746f20746865207a65726f20616464726573730060448201526064016104fe565b8060036000828254610dcb919061116f565b90915550506001600160a01b03821660009081526001602052604081208054839290610df890849061116f565b90915550506040518181526001600160a01b038316906000907fddf252ad1be2c89b69c2b068fc378daa952ba7f163c4a11628f55a4df523b3ef9060200160405180910390a35050565b6001600160a01b038216610ea25760405162461bcd60e51b815260206004820152602160248201527f45524332303a206275726e2066726f6d20746865207a65726f206164647265736044820152607360f81b60648201526084016104fe565b6001600160a01b03821660009081526001602052604090205481811015610f165760405162461bcd60e51b815260206004820152602260248201527f45524332303a206275726e20616d6f756e7420657863656564732062616c616e604482015261636560f01b60648201526084016104fe565b610f2082826111a6565b6001600160a01b03841660009081526001602052604081209190915560038054849290610f4e9084906111a6565b90915550506040518281526000906001600160a01b038516907fddf252ad1be2c89b69c2b068fc378daa952ba7f163c4a11628f55a4df523b3ef90602001610a31565b80356001600160a01b0381168114610fa857600080fd5b919050565b600060208284031215610fbf57600080fd5b61091282610f91565b60008060408385031215610fdb57600080fd5b610fe483610f91565b9150610ff260208401610f91565b90509250929050565b60008060006060848603121561101057600080fd5b61101984610f91565b925061102760208501610f91565b9150604084013590509250925092565b6000806040838503121561104a57600080fd5b61105383610f91565b946020939093013593505050565b60006020828403121561107357600080fd5b5035919050565b6000806040838503121561108d57600080fd5b82359150610ff260208401610f91565b6000602082840312156110af57600080fd5b81356001600160e01b03198116811461091257600080fd5b7f416363657373436f6e74726f6c3a206163636f756e74200000000000000000008152600083516110ff8160178501602088016111bd565b7001034b99036b4b9b9b4b733903937b6329607d1b60179184019182015283516111308160288401602088016111bd565b01602801949350505050565b602081526000825180602084015261115b8160408501602087016111bd565b601f01601f19169190910160400192915050565b600082198211156111825761118261123f565b500190565b60008160001904831182151516156111a1576111a161123f565b500290565b6000828210156111b8576111b861123f565b500390565b60005b838110156111d85781810151838201526020016111c0565b838111156111e7576000848401525b50505050565b6000816111fc576111fc61123f565b506000190190565b600181811c9082168061121857607f821691505b6020821081141561123957634e487b7160e01b600052602260045260246000fd5b50919050565b634e487b7160e01b600052601160045260246000fd5b634e487b7160e01b600052603260045260246000fd5b634e487b7160e01b600052604160045260246000fdfea2646970667358221220c14dc40a02ee21c99d38d4cbd81867bb61f6869f19dfdd15a09bbbba999a158b64736f6c63430008060033def7b99b7c04bccedce46894e954320e3b829f309ae7fc313b8bada74315677b",
  "immutableReferences": {},
  "source": "// SPDX-License-Identifier: AGPL-3.0-or-later\n\npragma solidity ^0.8.0;\n\nimport \"@openzeppelin/contracts/access/AccessControl.sol\";\nimport \"@openzeppelin/contracts/token/ERC20/ERC20.sol\";\n\nimport \"./interfaces/IShitPile.sol\";\n\ncontract DogeShit is AccessControl, ERC20 {\n\n\tbytes32 public constant SHIT_MAKER_ROLE = keccak256(\"SHIT_MAKER_ROLE\");\n\tbytes32 public constant SHIT_BURNER_ROLE = keccak256(\"SHIT_BURNER_ROLE\");\n\n\taddress public rewardsPool;\n\n\n\tconstructor(address _shitMaker, address _rewardsPool) ERC20(\"DogeShit\", \"dSHT\") {\n\t\t_setupRole(DEFAULT_ADMIN_ROLE, msg.sender);\n\t\t_setupRole(SHIT_MAKER_ROLE, _shitMaker);\n\t\t_setupRole(SHIT_BURNER_ROLE, _rewardsPool);\n\t\tgrantRole(SHIT_MAKER_ROLE, _rewardsPool);\n\t\trenounceRole(DEFAULT_ADMIN_ROLE, msg.sender);\n\t\trewardsPool = _rewardsPool;\n\t}\n\n\tfunction mint(address to, uint256 amount) public onlyRole(SHIT_MAKER_ROLE) {\n\t\t_mint(to, amount);\n\t}\n\n\tfunction burn(address from, uint256 amount) public onlyRole(SHIT_BURNER_ROLE) {\n\t\t_burn(from, amount);\n\t}\n\n}\n",
  "sourcePath": "/home/joe/Work/Crypto/dogeshit/contracts/contracts/DogeShit.sol",
  "compiler": {
    "name": "solc",
    "version": "0.8.6+commit.11564f7e.Emscripten.clang"
  },
  "schemaVersion": "3.4.1",
  "updatedAt": "2021-07-13T23:34:00.490Z",
  "networkType": "ethereum",
  "devdoc": {
    "kind": "dev",
    "methods": {
      "allowance(address,address)": {
        "details": "See {IERC20-allowance}."
      },
      "approve(address,uint256)": {
        "details": "See {IERC20-approve}. Requirements: - `spender` cannot be the zero address."
      },
      "balanceOf(address)": {
        "details": "See {IERC20-balanceOf}."
      },
      "decimals()": {
        "details": "Returns the number of decimals used to get its user representation. For example, if `decimals` equals `2`, a balance of `505` tokens should be displayed to a user as `5,05` (`505 / 10 ** 2`). Tokens usually opt for a value of 18, imitating the relationship between Ether and Wei. This is the value {ERC20} uses, unless this function is overridden; NOTE: This information is only used for _display_ purposes: it in no way affects any of the arithmetic of the contract, including {IERC20-balanceOf} and {IERC20-transfer}."
      },
      "decreaseAllowance(address,uint256)": {
        "details": "Atomically decreases the allowance granted to `spender` by the caller. This is an alternative to {approve} that can be used as a mitigation for problems described in {IERC20-approve}. Emits an {Approval} event indicating the updated allowance. Requirements: - `spender` cannot be the zero address. - `spender` must have allowance for the caller of at least `subtractedValue`."
      },
      "getRoleAdmin(bytes32)": {
        "details": "Returns the admin role that controls `role`. See {grantRole} and {revokeRole}. To change a role's admin, use {_setRoleAdmin}."
      },
      "grantRole(bytes32,address)": {
        "details": "Grants `role` to `account`. If `account` had not been already granted `role`, emits a {RoleGranted} event. Requirements: - the caller must have ``role``'s admin role."
      },
      "hasRole(bytes32,address)": {
        "details": "Returns `true` if `account` has been granted `role`."
      },
      "increaseAllowance(address,uint256)": {
        "details": "Atomically increases the allowance granted to `spender` by the caller. This is an alternative to {approve} that can be used as a mitigation for problems described in {IERC20-approve}. Emits an {Approval} event indicating the updated allowance. Requirements: - `spender` cannot be the zero address."
      },
      "name()": {
        "details": "Returns the name of the token."
      },
      "renounceRole(bytes32,address)": {
        "details": "Revokes `role` from the calling account. Roles are often managed via {grantRole} and {revokeRole}: this function's purpose is to provide a mechanism for accounts to lose their privileges if they are compromised (such as when a trusted device is misplaced). If the calling account had been granted `role`, emits a {RoleRevoked} event. Requirements: - the caller must be `account`."
      },
      "revokeRole(bytes32,address)": {
        "details": "Revokes `role` from `account`. If `account` had been granted `role`, emits a {RoleRevoked} event. Requirements: - the caller must have ``role``'s admin role."
      },
      "supportsInterface(bytes4)": {
        "details": "See {IERC165-supportsInterface}."
      },
      "symbol()": {
        "details": "Returns the symbol of the token, usually a shorter version of the name."
      },
      "totalSupply()": {
        "details": "See {IERC20-totalSupply}."
      },
      "transfer(address,uint256)": {
        "details": "See {IERC20-transfer}. Requirements: - `recipient` cannot be the zero address. - the caller must have a balance of at least `amount`."
      },
      "transferFrom(address,address,uint256)": {
        "details": "See {IERC20-transferFrom}. Emits an {Approval} event indicating the updated allowance. This is not required by the EIP. See the note at the beginning of {ERC20}. Requirements: - `sender` and `recipient` cannot be the zero address. - `sender` must have a balance of at least `amount`. - the caller must have allowance for ``sender``'s tokens of at least `amount`."
      }
    },
    "version": 1
  },
  "userdoc": {
    "kind": "user",
    "methods": {},
    "version": 1
  }
}