{
  "contractName": "ShitLord",
  "abi": [
    {
      "inputs": [
        {
          "internalType": "address",
          "name": "_shit_lock_addr",
          "type": "address"
        },
        {
          "internalType": "address[]",
          "name": "_doges",
          "type": "address[]"
        }
      ],
      "stateMutability": "nonpayable",
      "type": "constructor"
    },
    {
      "anonymous": false,
      "inputs": [
        {
          "indexed": false,
          "internalType": "address",
          "name": "doge_address",
          "type": "address"
        }
      ],
      "name": "AddedDogeContractAddress",
      "type": "event"
    },
    {
      "anonymous": false,
      "inputs": [
        {
          "indexed": false,
          "internalType": "address",
          "name": "doge_address",
          "type": "address"
        },
        {
          "indexed": false,
          "internalType": "uint256",
          "name": "amount",
          "type": "uint256"
        }
      ],
      "name": "DogeBurned",
      "type": "event"
    },
    {
      "anonymous": false,
      "inputs": [
        {
          "indexed": true,
          "internalType": "address",
          "name": "previousOwner",
          "type": "address"
        },
        {
          "indexed": true,
          "internalType": "address",
          "name": "newOwner",
          "type": "address"
        }
      ],
      "name": "OwnershipTransferred",
      "type": "event"
    },
    {
      "anonymous": false,
      "inputs": [
        {
          "indexed": false,
          "internalType": "address",
          "name": "doge_address",
          "type": "address"
        }
      ],
      "name": "RemovedDogeContractAddress",
      "type": "event"
    },
    {
      "anonymous": false,
      "inputs": [
        {
          "indexed": true,
          "internalType": "bytes32",
          "name": "role",
          "type": "bytes32"
        },
        {
          "indexed": true,
          "internalType": "bytes32",
          "name": "previousAdminRole",
          "type": "bytes32"
        },
        {
          "indexed": true,
          "internalType": "bytes32",
          "name": "newAdminRole",
          "type": "bytes32"
        }
      ],
      "name": "RoleAdminChanged",
      "type": "event"
    },
    {
      "anonymous": false,
      "inputs": [
        {
          "indexed": true,
          "internalType": "bytes32",
          "name": "role",
          "type": "bytes32"
        },
        {
          "indexed": true,
          "internalType": "address",
          "name": "account",
          "type": "address"
        },
        {
          "indexed": true,
          "internalType": "address",
          "name": "sender",
          "type": "address"
        }
      ],
      "name": "RoleGranted",
      "type": "event"
    },
    {
      "anonymous": false,
      "inputs": [
        {
          "indexed": true,
          "internalType": "bytes32",
          "name": "role",
          "type": "bytes32"
        },
        {
          "indexed": true,
          "internalType": "address",
          "name": "account",
          "type": "address"
        },
        {
          "indexed": true,
          "internalType": "address",
          "name": "sender",
          "type": "address"
        }
      ],
      "name": "RoleRevoked",
      "type": "event"
    },
    {
      "inputs": [],
      "name": "DEFAULT_ADMIN_ROLE",
      "outputs": [
        {
          "internalType": "bytes32",
          "name": "",
          "type": "bytes32"
        }
      ],
      "stateMutability": "view",
      "type": "function",
      "constant": true
    },
    {
      "inputs": [],
      "name": "INIT",
      "outputs": [
        {
          "internalType": "bytes32",
          "name": "",
          "type": "bytes32"
        }
      ],
      "stateMutability": "view",
      "type": "function",
      "constant": true
    },
    {
      "inputs": [
        {
          "internalType": "uint256",
          "name": "",
          "type": "uint256"
        }
      ],
      "name": "doge_contracts",
      "outputs": [
        {
          "internalType": "contract IERC20",
          "name": "",
          "type": "address"
        }
      ],
      "stateMutability": "view",
      "type": "function",
      "constant": true
    },
    {
      "inputs": [
        {
          "internalType": "bytes32",
          "name": "role",
          "type": "bytes32"
        }
      ],
      "name": "getRoleAdmin",
      "outputs": [
        {
          "internalType": "bytes32",
          "name": "",
          "type": "bytes32"
        }
      ],
      "stateMutability": "view",
      "type": "function",
      "constant": true
    },
    {
      "inputs": [
        {
          "internalType": "bytes32",
          "name": "role",
          "type": "bytes32"
        },
        {
          "internalType": "address",
          "name": "account",
          "type": "address"
        }
      ],
      "name": "grantRole",
      "outputs": [],
      "stateMutability": "nonpayable",
      "type": "function"
    },
    {
      "inputs": [
        {
          "internalType": "bytes32",
          "name": "role",
          "type": "bytes32"
        },
        {
          "internalType": "address",
          "name": "account",
          "type": "address"
        }
      ],
      "name": "hasRole",
      "outputs": [
        {
          "internalType": "bool",
          "name": "",
          "type": "bool"
        }
      ],
      "stateMutability": "view",
      "type": "function",
      "constant": true
    },
    {
      "inputs": [],
      "name": "init",
      "outputs": [
        {
          "internalType": "address",
          "name": "",
          "type": "address"
        }
      ],
      "stateMutability": "view",
      "type": "function",
      "constant": true
    },
    {
      "inputs": [],
      "name": "owner",
      "outputs": [
        {
          "internalType": "address",
          "name": "",
          "type": "address"
        }
      ],
      "stateMutability": "view",
      "type": "function",
      "constant": true
    },
    {
      "inputs": [],
      "name": "pit",
      "outputs": [
        {
          "internalType": "address",
          "name": "",
          "type": "address"
        }
      ],
      "stateMutability": "view",
      "type": "function",
      "constant": true
    },
    {
      "inputs": [],
      "name": "renounceOwnership",
      "outputs": [],
      "stateMutability": "nonpayable",
      "type": "function"
    },
    {
      "inputs": [
        {
          "internalType": "bytes32",
          "name": "role",
          "type": "bytes32"
        },
        {
          "internalType": "address",
          "name": "account",
          "type": "address"
        }
      ],
      "name": "renounceRole",
      "outputs": [],
      "stateMutability": "nonpayable",
      "type": "function"
    },
    {
      "inputs": [
        {
          "internalType": "bytes32",
          "name": "role",
          "type": "bytes32"
        },
        {
          "internalType": "address",
          "name": "account",
          "type": "address"
        }
      ],
      "name": "revokeRole",
      "outputs": [],
      "stateMutability": "nonpayable",
      "type": "function"
    },
    {
      "inputs": [
        {
          "internalType": "bytes4",
          "name": "interfaceId",
          "type": "bytes4"
        }
      ],
      "name": "supportsInterface",
      "outputs": [
        {
          "internalType": "bool",
          "name": "",
          "type": "bool"
        }
      ],
      "stateMutability": "view",
      "type": "function",
      "constant": true
    },
    {
      "inputs": [
        {
          "internalType": "address",
          "name": "newOwner",
          "type": "address"
        }
      ],
      "name": "transferOwnership",
      "outputs": [],
      "stateMutability": "nonpayable",
      "type": "function"
    },
    {
      "inputs": [
        {
          "internalType": "address",
          "name": "_dogeshit_address",
          "type": "address"
        }
      ],
      "name": "set_dogeshit",
      "outputs": [],
      "stateMutability": "nonpayable",
      "type": "function"
    },
    {
      "inputs": [
        {
          "internalType": "address",
          "name": "_doge_token_address",
          "type": "address"
        },
        {
          "internalType": "uint256",
          "name": "amount",
          "type": "uint256"
        }
      ],
      "name": "make_shit",
      "outputs": [],
      "stateMutability": "nonpayable",
      "type": "function"
    },
    {
      "inputs": [
        {
          "internalType": "address",
          "name": "_doge_contract",
          "type": "address"
        }
      ],
      "name": "register_doge_contract",
      "outputs": [],
      "stateMutability": "nonpayable",
      "type": "function"
    },
    {
      "inputs": [
        {
          "internalType": "address",
          "name": "_doge_contract",
          "type": "address"
        }
      ],
      "name": "remove_doge_contract",
      "outputs": [],
      "stateMutability": "nonpayable",
      "type": "function"
    }
  ],
  "bytecode": "0x60806040523480156200001157600080fd5b50604051620015d7380380620015d7833981016040819052620000349162000375565b600180546001600160a01b031916339081179091556040518190600090600080516020620015b7833981519152908290a350620000927fb687035e21e37544cf8aac31e9d86cbec8e9d12dfd1dc987a4f3d1d8f64f764d3362000180565b6200009d8262000190565b60005b815181101562000177576003828281518110620000c157620000c16200045e565b60209081029190910181015182546001810184556000938452919092200180546001600160a01b0319166001600160a01b0390921691909117905581517f541cab3b6af982d396e2e32f584d672939e291d0e15b1511cc4926a1dfbeeb01908390839081106200013557620001356200045e565b60200260200101516040516200015a91906001600160a01b0391909116815260200190565b60405180910390a1806200016e8162000474565b915050620000a0565b5050506200049e565b6200018c8282620002a2565b5050565b6001546001600160a01b03163314620001f05760405162461bcd60e51b815260206004820181905260248201527f4f776e61626c653a2063616c6c6572206973206e6f7420746865206f776e657260448201526064015b60405180910390fd5b6001600160a01b038116620002575760405162461bcd60e51b815260206004820152602660248201527f4f776e61626c653a206e6577206f776e657220697320746865207a65726f206160448201526564647265737360d01b6064820152608401620001e7565b6001546040516001600160a01b03808416921690600080516020620015b783398151915290600090a3600180546001600160a01b0319166001600160a01b0392909216919091179055565b6000828152602081815260408083206001600160a01b038516845290915290205460ff166200018c576000828152602081815260408083206001600160a01b03851684529091529020805460ff19166001179055620002fe3390565b6001600160a01b0316816001600160a01b0316837f2f8788117e7eff1d82e926ec794901d17c78024a50270940304540a733656f0d60405160405180910390a45050565b80516001600160a01b03811681146200035a57600080fd5b919050565b634e487b7160e01b600052604160045260246000fd5b600080604083850312156200038957600080fd5b620003948362000342565b602084810151919350906001600160401b0380821115620003b457600080fd5b818601915086601f830112620003c957600080fd5b815181811115620003de57620003de6200035f565b8060051b604051601f19603f830116810181811085821117156200040657620004066200035f565b6040529182528482019250838101850191898311156200042557600080fd5b938501935b828510156200044e576200043e8562000342565b845293850193928501926200042a565b8096505050505050509250929050565b634e487b7160e01b600052603260045260246000fd5b60006000198214156200049757634e487b7160e01b600052601160045260246000fd5b5060010190565b61110980620004ae6000396000f3fe608060405234801561001057600080fd5b50600436106101165760003560e01c806391d14854116100a2578063e1c7392a11610071578063e1c7392a14610247578063ea6439141461025a578063f03c7c6e14610281578063f2fde38b1461029c578063ffc69ad3146102af57600080fd5b806391d1485414610206578063940c1bf014610219578063a217fddf1461022c578063d547741f1461023457600080fd5b806336568abe116100e957806336568abe1461019c5780634368f260146101af578063715018a6146101da578063859ac946146101e25780638da5cb5b146101f557600080fd5b806301ffc9a71461011b57806315583ec014610143578063248a9ca3146101585780632f2ff15d14610189575b600080fd5b61012e610129366004610e29565b6102c2565b60405190151581526020015b60405180910390f35b610156610151366004610e6f565b6102f9565b005b61017b610166366004610e8a565b60009081526020819052604090206001015490565b60405190815260200161013a565b610156610197366004610ea3565b610463565b6101566101aa366004610ea3565b61048e565b6101c26101bd366004610e8a565b61050c565b6040516001600160a01b03909116815260200161013a565b610156610536565b6101566101f0366004610ecf565b6105aa565b6001546001600160a01b03166101c2565b61012e610214366004610ea3565b6108a3565b610156610227366004610e6f565b6108cc565b61017b600081565b610156610242366004610ea3565b61093c565b6002546101c2906001600160a01b031681565b61017b7fb687035e21e37544cf8aac31e9d86cbec8e9d12dfd1dc987a4f3d1d8f64f764d81565b6101c2737bdef7bdef7bdef7bdef7bdef7bdef7bdef6e7ad81565b6101566102aa366004610e6f565b610962565b6101566102bd366004610e6f565b610a4d565b60006001600160e01b03198216637965db0b60e01b14806102f357506301ffc9a760e01b6001600160e01b03198316145b92915050565b6001546001600160a01b0316331461032c5760405162461bcd60e51b815260040161032390610ef9565b60405180910390fd5b60005b6003548110156103de57816001600160a01b03166003828154811061035657610356610f2e565b6000918252602090912001546001600160a01b031614156103cc5760405162461bcd60e51b815260206004820152602a60248201527f5468617420646f676520636f6e74726163742077617320616c7265616479207260448201526932b3b4b9ba32b932b21760b11b6064820152608401610323565b806103d681610f5a565b91505061032f565b50600380546001810182556000919091527fc2575a0e9e593c00f959f8c92f12db2869c3395a3b0502d05e2516446f71f85b0180546001600160a01b0319166001600160a01b0383169081179091556040519081527f541cab3b6af982d396e2e32f584d672939e291d0e15b1511cc4926a1dfbeeb019060200160405180910390a150565b60008281526020819052604090206001015461047f8133610b39565b6104898383610b9d565b505050565b6001600160a01b03811633146104fe5760405162461bcd60e51b815260206004820152602f60248201527f416363657373436f6e74726f6c3a2063616e206f6e6c792072656e6f756e636560448201526e103937b632b9903337b91039b2b63360891b6064820152608401610323565b6105088282610c21565b5050565b6003818154811061051c57600080fd5b6000918252602090912001546001600160a01b0316905081565b6001546001600160a01b031633146105605760405162461bcd60e51b815260040161032390610ef9565b6001546040516000916001600160a01b0316907f8be0079c531659141344cd1fd0a4f28419497f9722a3daafe3b4186f6b6457e0908390a3600180546001600160a01b0319169055565b60008060005b60035481101561061057846001600160a01b0316600382815481106105d7576105d7610f2e565b6000918252602090912001546001600160a01b031614156105fe5760019250809150610610565b8061060881610f5a565b9150506105b0565b50816106845760405162461bcd60e51b815260206004820152603b60248201527f546865206465736972656420646f676520636f6e7472616374206973206e6f7460448201527f2061626c6520746f206265206d61646520696e746f20736869742e00000000006064820152608401610323565b6003818154811061069757610697610f2e565b6000918252602090912001546040516323b872dd60e01b8152336004820152306024820152604481018590526001600160a01b03909116906323b872dd90606401602060405180830381600087803b1580156106f257600080fd5b505af1158015610706573d6000803e3d6000fd5b505050506040513d601f19601f8201168201806040525081019061072a9190610f75565b506004546001600160a01b03166340c10f193361074886600a610f97565b6040516001600160e01b031960e085901b1681526001600160a01b0390921660048301526024820152604401600060405180830381600087803b15801561078e57600080fd5b505af11580156107a2573d6000803e3d6000fd5b50505050600381815481106107b9576107b9610f2e565b60009182526020909120015460405163a9059cbb60e01b8152737bdef7bdef7bdef7bdef7bdef7bdef7bdef6e7ad6004820152602481018590526001600160a01b039091169063a9059cbb90604401602060405180830381600087803b15801561082257600080fd5b505af1158015610836573d6000803e3d6000fd5b505050506040513d601f19601f8201168201806040525081019061085a9190610f75565b50604080516001600160a01b0386168152602081018590527f20ca60e3f5d81c6ef116a9f1ff71fac0b802f0d9b38db575cad9c1e3084a20fd910160405180910390a150505050565b6000918252602082815260408084206001600160a01b0393909316845291905290205460ff1690565b7fb687035e21e37544cf8aac31e9d86cbec8e9d12dfd1dc987a4f3d1d8f64f764d6108f78133610b39565b600480546001600160a01b0319166001600160a01b0384161790556105087fb687035e21e37544cf8aac31e9d86cbec8e9d12dfd1dc987a4f3d1d8f64f764d3361048e565b6000828152602081905260409020600101546109588133610b39565b6104898383610c21565b6001546001600160a01b0316331461098c5760405162461bcd60e51b815260040161032390610ef9565b6001600160a01b0381166109f15760405162461bcd60e51b815260206004820152602660248201527f4f776e61626c653a206e6577206f776e657220697320746865207a65726f206160448201526564647265737360d01b6064820152608401610323565b6001546040516001600160a01b038084169216907f8be0079c531659141344cd1fd0a4f28419497f9722a3daafe3b4186f6b6457e090600090a3600180546001600160a01b0319166001600160a01b0392909216919091179055565b6001546001600160a01b03163314610a775760405162461bcd60e51b815260040161032390610ef9565b60005b60035481101561050857816001600160a01b031660038281548110610aa157610aa1610f2e565b6000918252602090912001546001600160a01b03161415610b275760038181548110610acf57610acf610f2e565b60009182526020918290200180546001600160a01b03191690556040516001600160a01b03841681527f84d25155b99b552aab6f0f4486d10d28d667bcc9a338ae66fc3ca3a1801e73ca910160405180910390a15050565b80610b3181610f5a565b915050610a7a565b610b4382826108a3565b61050857610b5b816001600160a01b03166014610c86565b610b66836020610c86565b604051602001610b77929190610fe6565b60408051601f198184030181529082905262461bcd60e51b82526103239160040161105b565b610ba782826108a3565b610508576000828152602081815260408083206001600160a01b03851684529091529020805460ff19166001179055610bdd3390565b6001600160a01b0316816001600160a01b0316837f2f8788117e7eff1d82e926ec794901d17c78024a50270940304540a733656f0d60405160405180910390a45050565b610c2b82826108a3565b15610508576000828152602081815260408083206001600160a01b0385168085529252808320805460ff1916905551339285917ff6391f5c32d9c69d2a47ea670b442974b53935d1edc7fd64eb21e047a839171b9190a45050565b60606000610c95836002610f97565b610ca090600261108e565b67ffffffffffffffff811115610cb857610cb86110a6565b6040519080825280601f01601f191660200182016040528015610ce2576020820181803683370190505b509050600360fc1b81600081518110610cfd57610cfd610f2e565b60200101906001600160f81b031916908160001a905350600f60fb1b81600181518110610d2c57610d2c610f2e565b60200101906001600160f81b031916908160001a9053506000610d50846002610f97565b610d5b90600161108e565b90505b6001811115610dd3576f181899199a1a9b1b9c1cb0b131b232b360811b85600f1660108110610d8f57610d8f610f2e565b1a60f81b828281518110610da557610da5610f2e565b60200101906001600160f81b031916908160001a90535060049490941c93610dcc816110bc565b9050610d5e565b508315610e225760405162461bcd60e51b815260206004820181905260248201527f537472696e67733a20686578206c656e67746820696e73756666696369656e746044820152606401610323565b9392505050565b600060208284031215610e3b57600080fd5b81356001600160e01b031981168114610e2257600080fd5b80356001600160a01b0381168114610e6a57600080fd5b919050565b600060208284031215610e8157600080fd5b610e2282610e53565b600060208284031215610e9c57600080fd5b5035919050565b60008060408385031215610eb657600080fd5b82359150610ec660208401610e53565b90509250929050565b60008060408385031215610ee257600080fd5b610eeb83610e53565b946020939093013593505050565b6020808252818101527f4f776e61626c653a2063616c6c6572206973206e6f7420746865206f776e6572604082015260600190565b634e487b7160e01b600052603260045260246000fd5b634e487b7160e01b600052601160045260246000fd5b6000600019821415610f6e57610f6e610f44565b5060010190565b600060208284031215610f8757600080fd5b81518015158114610e2257600080fd5b6000816000190483118215151615610fb157610fb1610f44565b500290565b60005b83811015610fd1578181015183820152602001610fb9565b83811115610fe0576000848401525b50505050565b7f416363657373436f6e74726f6c3a206163636f756e742000000000000000000081526000835161101e816017850160208801610fb6565b7001034b99036b4b9b9b4b733903937b6329607d1b601791840191820152835161104f816028840160208801610fb6565b01602801949350505050565b602081526000825180602084015261107a816040850160208701610fb6565b601f01601f19169190910160400192915050565b600082198211156110a1576110a1610f44565b500190565b634e487b7160e01b600052604160045260246000fd5b6000816110cb576110cb610f44565b50600019019056fea26469706673582212205e0559dc707921b22f992908d0c9eecaa1d433e9acdcfba7010bfb2a9150ec3564736f6c634300080900338be0079c531659141344cd1fd0a4f28419497f9722a3daafe3b4186f6b6457e0",
  "immutableReferences": {},
  "source": "// SPDX-License-Identifier: AGPL-3.0-or-later\n\npragma solidity ^0.8.0;\n\nimport \"@openzeppelin/contracts/access/AccessControl.sol\";\nimport \"@openzeppelin/contracts/access/Ownable.sol\";\nimport \"@openzeppelin/contracts/token/ERC20/IERC20.sol\";\n\nimport \"./interfaces/IDogeShit.sol\";\n\ncontract ShitLord is AccessControl, Ownable {\n\n\taddress public init;\n\taddress public constant pit = 0x7bDeF7Bdef7BDeF7BDEf7bDef7bdef7bdeF6E7AD;\n\n\tbytes32 public constant INIT = keccak256(\"INIT\");\n\n\tIERC20[] public doge_contracts;\n\n\tIDogeShit internal _dogeshit;\n\n\tevent DogeBurned(address doge_address, uint256 amount);\n\tevent AddedDogeContractAddress(address doge_address);\n\tevent RemovedDogeContractAddress(address doge_address);\n\n\n\tconstructor(address _shit_lock_addr, address[] memory _doges) {\n\t\t\t_setupRole(INIT, msg.sender);\n\t\t\ttransferOwnership(_shit_lock_addr);\n\n\t\t\tfor (uint i=0; i < _doges.length; i++) {\n\t\t\t\tdoge_contracts.push(IERC20(_doges[i]));\n\t\t\t\temit AddedDogeContractAddress(_doges[i]);\n\t\t\t}\n\t}\n\n\tfunction set_dogeshit(address _dogeshit_address) public  onlyRole(INIT) {\n\t\t_dogeshit = IDogeShit(_dogeshit_address);\n\t\trenounceRole(INIT, msg.sender);\n\t}\n\n\tfunction make_shit(address _doge_token_address, uint256 amount) public {\n\t\tbool _exists = false;\n\t\tuint256 _idx = 0;\n\t\tfor (uint i=0; i < doge_contracts.length; i++) {\n\t\t\tif (address(doge_contracts[i]) == _doge_token_address) {\n\t\t\t\t_exists = true;\n\t\t\t\t_idx = i;\n\t\t\t\tbreak;\n\t\t\t}\n\t\t}\n\t\trequire(_exists, \"The desired doge contract is not able to be made into shit.\");\n\n\t\tdoge_contracts[_idx].transferFrom(msg.sender, address(this), amount);\n\t\t_dogeshit.mint(msg.sender, amount * 10); // DOGE 8 Decimals -> dSHT 9\n\t\tdoge_contracts[_idx].transfer(pit, amount);\n\t\temit DogeBurned(_doge_token_address, amount);\n\t}\n\n\tfunction register_doge_contract(address _doge_contract) public onlyOwner {\n\t\tfor (uint i=0; i < doge_contracts.length; i++) {\n\t\t\tif (address(doge_contracts[i]) == _doge_contract) {\n\t\t\t\trevert(\"That doge contract was already registered.\");\n\t\t\t}\n\t\t}\n\t\tdoge_contracts.push(IERC20(_doge_contract));\n\t\temit AddedDogeContractAddress(_doge_contract);\n\t}\n\n\tfunction remove_doge_contract(address _doge_contract) public onlyOwner {\n\t\tfor (uint i=0; i < doge_contracts.length; i++) {\n\t\t\tif (address(doge_contracts[i]) == _doge_contract) {\n\t\t\t\tdelete doge_contracts[i];\n\t\t\t\temit RemovedDogeContractAddress(_doge_contract);\n\t\t\t\tbreak;\n\t\t\t}\n\t\t}\n\t}\n}\n\n",
  "sourcePath": "/home/joe/Work/Crypto/dogeshit/contracts/contracts/ShitLord.sol",
  "compiler": {
    "name": "solc",
    "version": "0.8.9+commit.e5eed63a.Emscripten.clang"
  },
  "schemaVersion": "3.4.1",
  "updatedAt": "2021-10-01T02:45:17.969Z",
  "networkType": "ethereum",
  "devdoc": {
    "kind": "dev",
    "methods": {
      "getRoleAdmin(bytes32)": {
        "details": "Returns the admin role that controls `role`. See {grantRole} and {revokeRole}. To change a role's admin, use {_setRoleAdmin}."
      },
      "grantRole(bytes32,address)": {
        "details": "Grants `role` to `account`. If `account` had not been already granted `role`, emits a {RoleGranted} event. Requirements: - the caller must have ``role``'s admin role."
      },
      "hasRole(bytes32,address)": {
        "details": "Returns `true` if `account` has been granted `role`."
      },
      "owner()": {
        "details": "Returns the address of the current owner."
      },
      "renounceOwnership()": {
        "details": "Leaves the contract without owner. It will not be possible to call `onlyOwner` functions anymore. Can only be called by the current owner. NOTE: Renouncing ownership will leave the contract without an owner, thereby removing any functionality that is only available to the owner."
      },
      "renounceRole(bytes32,address)": {
        "details": "Revokes `role` from the calling account. Roles are often managed via {grantRole} and {revokeRole}: this function's purpose is to provide a mechanism for accounts to lose their privileges if they are compromised (such as when a trusted device is misplaced). If the calling account had been granted `role`, emits a {RoleRevoked} event. Requirements: - the caller must be `account`."
      },
      "revokeRole(bytes32,address)": {
        "details": "Revokes `role` from `account`. If `account` had been granted `role`, emits a {RoleRevoked} event. Requirements: - the caller must have ``role``'s admin role."
      },
      "supportsInterface(bytes4)": {
        "details": "See {IERC165-supportsInterface}."
      },
      "transferOwnership(address)": {
        "details": "Transfers ownership of the contract to a new account (`newOwner`). Can only be called by the current owner."
      }
    },
    "version": 1
  },
  "userdoc": {
    "kind": "user",
    "methods": {},
    "version": 1
  }
}