{
  "contractName": "ShitFountain",
  "abi": [
    {
      "inputs": [],
      "name": "DogeShit",
      "outputs": [
        {
          "internalType": "contract IDogeShit",
          "name": "",
          "type": "address"
        }
      ],
      "stateMutability": "view",
      "type": "function",
      "constant": true
    },
    {
      "inputs": [],
      "name": "genesis",
      "outputs": [
        {
          "internalType": "uint256",
          "name": "",
          "type": "uint256"
        }
      ],
      "stateMutability": "view",
      "type": "function",
      "constant": true
    },
    {
      "inputs": [],
      "name": "last_reward_block",
      "outputs": [
        {
          "internalType": "uint256",
          "name": "",
          "type": "uint256"
        }
      ],
      "stateMutability": "view",
      "type": "function",
      "constant": true
    },
    {
      "inputs": [],
      "name": "pit",
      "outputs": [
        {
          "internalType": "address",
          "name": "",
          "type": "address"
        }
      ],
      "stateMutability": "view",
      "type": "function",
      "constant": true
    },
    {
      "inputs": [],
      "name": "reward_per_token",
      "outputs": [
        {
          "internalType": "uint256",
          "name": "",
          "type": "uint256"
        }
      ],
      "stateMutability": "view",
      "type": "function",
      "constant": true
    },
    {
      "inputs": [
        {
          "internalType": "address",
          "name": "",
          "type": "address"
        }
      ],
      "name": "reward_tally",
      "outputs": [
        {
          "internalType": "uint256",
          "name": "",
          "type": "uint256"
        }
      ],
      "stateMutability": "view",
      "type": "function",
      "constant": true
    },
    {
      "inputs": [
        {
          "internalType": "address",
          "name": "",
          "type": "address"
        }
      ],
      "name": "stake",
      "outputs": [
        {
          "internalType": "uint256",
          "name": "",
          "type": "uint256"
        }
      ],
      "stateMutability": "view",
      "type": "function",
      "constant": true
    },
    {
      "inputs": [],
      "name": "total_stake",
      "outputs": [
        {
          "internalType": "uint256",
          "name": "",
          "type": "uint256"
        }
      ],
      "stateMutability": "view",
      "type": "function",
      "constant": true
    },
    {
      "inputs": [
        {
          "internalType": "address",
          "name": "shit_address",
          "type": "address"
        }
      ],
      "name": "init_shit",
      "outputs": [],
      "stateMutability": "nonpayable",
      "type": "function"
    },
    {
      "inputs": [
        {
          "internalType": "uint256",
          "name": "amount",
          "type": "uint256"
        }
      ],
      "name": "deposit_stake",
      "outputs": [],
      "stateMutability": "nonpayable",
      "type": "function"
    },
    {
      "inputs": [],
      "name": "distribute",
      "outputs": [],
      "stateMutability": "nonpayable",
      "type": "function"
    },
    {
      "inputs": [
        {
          "internalType": "address",
          "name": "account",
          "type": "address"
        }
      ],
      "name": "unclaimed_reward",
      "outputs": [
        {
          "internalType": "uint256",
          "name": "",
          "type": "uint256"
        }
      ],
      "stateMutability": "view",
      "type": "function",
      "constant": true
    },
    {
      "inputs": [
        {
          "internalType": "address",
          "name": "account",
          "type": "address"
        }
      ],
      "name": "compute_reward",
      "outputs": [
        {
          "internalType": "uint256",
          "name": "",
          "type": "uint256"
        }
      ],
      "stateMutability": "view",
      "type": "function",
      "constant": true
    },
    {
      "inputs": [],
      "name": "withdraw_rewards",
      "outputs": [],
      "stateMutability": "nonpayable",
      "type": "function"
    },
    {
      "inputs": [
        {
          "internalType": "uint256",
          "name": "amount",
          "type": "uint256"
        }
      ],
      "name": "withdraw_stake",
      "outputs": [],
      "stateMutability": "nonpayable",
      "type": "function"
    },
    {
      "inputs": [],
      "name": "reward_per_block",
      "outputs": [
        {
          "internalType": "uint256",
          "name": "",
          "type": "uint256"
        }
      ],
      "stateMutability": "view",
      "type": "function",
      "constant": true
    }
  ],
  "bytecode": "0x608060405260006002556000600355600060045534801561001f57600080fd5b50610b8e8061002f6000396000f3fe608060405234801561001057600080fd5b50600436106101005760003560e01c8063b501886f11610097578063e4fc6b6d11610066578063e4fc6b6d14610222578063ee948ea81461022a578063f03c7c6e1461023d578063fb8c50e71461025857600080fd5b8063b501886f146101de578063c20a5997146101f1578063cd22b4f1146101f9578063d462de521461021957600080fd5b8063317f4488116100d3578063317f4488146101a657806361fd0ecd146101af578063a577d5ba146101c2578063a7f0b3de146101d557600080fd5b80630b44d6fe14610105578063241e117d14610120578063264762041461015b5780632fd643d61461017b575b600080fd5b61010d610261565b6040519081526020015b60405180910390f35b61015961012e366004610967565b600080546001600160a01b0319166001600160a01b0392909216919091179055436001819055600355565b005b61010d610169366004610967565b60056020526000908152604090205481565b60005461018e906001600160a01b031681565b6040516001600160a01b039091168152602001610117565b61010d60035481565b6101596101bd3660046109b2565b61047e565b61010d6101d0366004610967565b61058a565b61010d60015481565b6101596101ec3660046109b2565b6105ce565b610159610749565b61010d610207366004610967565b60066020526000908152604090205481565b61010d60025481565b6101596107fb565b61010d610238366004610967565b610859565b61018e737bdef7bdef7bdef7bdef7bdef7bdef7bdef6e7ad81565b61010d60045481565b600080600154436102729190610b01565b101561027e5750600090565b622dc6c0600154436102909190610b01565b10156102a5575069020d9f07d463eb80000090565b625b8d80600154436102b79190610b01565b10156102cc5750690179ca4da0a7d144000090565b62895440600154436102de9190610b01565b10156102f2575068c832ab9da5bd94000090565b62b71b00600154436103049190610b01565b1015610318575068487a9a30453944000090565b62e4e1c06001544361032a9190610b01565b101561033e5750683487938e049984000090565b63010980c0600154436103519190610b01565b101561036557506816c4abbebea010000090565b6302130180600154436103789190610b01565b101561038c57506803bd913e6c1df4000090565b6303473bc06001544361039f9190610b01565b10156103b35750680246ddf9797668000090565b63047868c0600154436103c69190610b01565b10156103d9575067b469471f8014000090565b6305f5e100600154436103ec9190610b01565b10156103ff5750677ce66c50e284000090565b6307735940600154436104129190610b01565b101561042557506753444835ec58000090565b6308f0d180600154436104389190610b01565b101561044b5750673782dace9d90000090565b630bebc2006001544361045e9190610b01565b10156104715750671bc16d674ec8000090565b50670de0b6b3a764000090565b6104866107fb565b336000908152600560205260409020546104a19082906109cb565b336000908152600560205260409020556004546104be90826108bf565b336000908152600660205260409020546104d891906109cb565b33600081815260066020526040808220939093555491516323b872dd60e01b81526004810191909152306024820152604481018390526001600160a01b03909116906323b872dd90606401602060405180830381600087803b15801561053d57600080fd5b505af1158015610551573d6000803e3d6000fd5b505050506040513d601f19601f820116820180604052508101906105759190610990565b508060025461058491906109cb565b60025550565b6001600160a01b03811660009081526006602090815260408083205460045460059093529083205490916105be91906108bf565b6105c89190610b01565b92915050565b336000908152600560205260409020548111156106495760405162461bcd60e51b815260206004820152602f60248201527f416d6f756e7420726571756573746564206973206d6f7265207468616e20637560448201526e393932b73a363c9039ba30b5b2b21760891b606482015260840160405180910390fd5b610651610749565b3360009081526005602052604090205461066c908290610b01565b3360009081526005602052604090205560045461068990826108bf565b336000908152600660205260409020546106a39190610b01565b336000818152600660205260408082209390935554915163a9059cbb60e01b81526004810191909152602481018390526001600160a01b039091169063a9059cbb90604401602060405180830381600087803b15801561070257600080fd5b505af1158015610716573d6000803e3d6000fd5b505050506040513d601f19601f8201168201806040525081019061073a9190610990565b50806002546105849190610b01565b6107516107fb565b600061075c3361058a565b905080156107f85760045433600090815260056020526040902054610780916108bf565b33600081815260066020526040808220939093555491516340c10f1960e01b81526004810191909152602481018390526001600160a01b03909116906340c10f1990604401600060405180830381600087803b1580156107df57600080fd5b505af11580156107f3573d6000803e3d6000fd5b505050505b50565b60025461080d57600060045543600355565b43600354101561085757610842600254610825610261565b6003546108329043610b01565b61083c9190610ae2565b906108de565b60045461084f91906109cb565b600455436003555b565b6000806002541161086b5760006105c8565b6001600160a01b0382166000908152600660205260409020546002546105be9061089790610825610261565b6004546108a491906109cb565b6001600160a01b038516600090815260056020526040902054905b60006108d783836108d26012600a610a3a565b6108f6565b9392505050565b60006108d783836108f16012600a610a3a565b61094e565b600080610904600a846109e3565b61090e8587610ae2565b61091891906109e3565b90506005610927600a83610b18565b1061093a57610937600a826109cb565b90505b610945600a826109e3565b95945050505050565b6000808361095c8487610ae2565b61090e90600a610ae2565b60006020828403121561097957600080fd5b81356001600160a01b03811681146108d757600080fd5b6000602082840312156109a257600080fd5b815180151581146108d757600080fd5b6000602082840312156109c457600080fd5b5035919050565b600082198211156109de576109de610b2c565b500190565b6000826109f2576109f2610b42565b500490565b600181815b80851115610a32578160001904821115610a1857610a18610b2c565b80851615610a2557918102915b93841c93908002906109fc565b509250929050565b60006108d78383600082610a50575060016105c8565b81610a5d575060006105c8565b8160018114610a735760028114610a7d57610a99565b60019150506105c8565b60ff841115610a8e57610a8e610b2c565b50506001821b6105c8565b5060208310610133831016604e8410600b8410161715610abc575081810a6105c8565b610ac683836109f7565b8060001904821115610ada57610ada610b2c565b029392505050565b6000816000190483118215151615610afc57610afc610b2c565b500290565b600082821015610b1357610b13610b2c565b500390565b600082610b2757610b27610b42565b500690565b634e487b7160e01b600052601160045260246000fd5b634e487b7160e01b600052601260045260246000fdfea264697066735822122003d324dfa31e17d093ff996d21eefef4a496bbea0e52848839ca38f6863d376464736f6c63430008060033",
  "immutableReferences": {},
  "source": "// SPDX-License-Identifier: AGPL-3.0-or-later\n\npragma solidity ^0.8.0;\n\nimport \"./interfaces/IDogeShit.sol\";\nimport \"./DecimalMath.sol\";\n\ncontract ShitFountain {\n\n\tusing DecimalMath for uint256;\n\n\taddress public constant pit = 0x7bDeF7Bdef7BDeF7BDEf7bDef7bdef7bdeF6E7AD;\n\n\tIDogeShit public DogeShit;\n\n\tuint256 public genesis;\n\tuint256 public total_stake = 0;\n\tuint256 public last_reward_block = 0;\n\tuint256 public reward_per_token = 0;\n\n\tmapping(address => uint256) public stake;\n\tmapping(address => uint256) public reward_tally;\n\n\tfunction init_shit(address shit_address) public {\n\t\tDogeShit = IDogeShit(shit_address);\n\t\tgenesis = block.number;\n\t\tlast_reward_block = block.number;\n\t}\n\n\tfunction deposit_stake(uint256 amount) public {\n\t\tdistribute();\n\t\tstake[msg.sender] = stake[msg.sender] + amount;\n\t\treward_tally[msg.sender] = reward_tally[msg.sender] + reward_per_token.multiplyDecimalRound(amount);\n\t\tDogeShit.transferFrom(msg.sender, address(this), amount);\n\t\ttotal_stake = total_stake + amount;\n\t}\n\n\tfunction distribute() public {\n\t\tif (total_stake == 0) {\n\t\t\treward_per_token = 0;\n\t\t\tlast_reward_block = block.number;\n\t\t}\n\t\telse if ( last_reward_block < block.number) {\n\t\t\t/*\n\t\t\tuint256 rpb = reward_per_block();\n\t\t  uint256 blocks = block.number - last_reward_block;\n\t\t  uint256 rewards = blocks*rpb;\n\t\t  reward_per_token = reward_per_token + rewards.divideDecimalRound(total_stake);\n\t\t\t*/\n\t\t\treward_per_token = reward_per_token +\n\t\t\t\t((block.number - last_reward_block)*reward_per_block()).divideDecimalRound(total_stake);\n\t\t\tlast_reward_block = block.number;\n\t\t}\n\t}\n\n\tfunction unclaimed_reward(address account) public view returns (uint256) {\n\t\t/*\n\t\tif ( total_stake == 0 ) {\n\t\t\treturn 0;\n\t\t}\n\t\tuint256 rpb = reward_per_block();\n\t\tuint256 blocks = block.number - last_reward_block;\n\t\tuint256 rewards = blocks*rpb;\n\t\tuint256 _reward_per_token = reward_per_token + rewards.divideDecimalRound(total_stake);\n\t\treturn stake[account].multiplyDecimalRound(_reward_per_token) - reward_tally[account];\n\t\t*/\n\t\treturn total_stake > 0 ? stake[account].multiplyDecimalRound(\n\t\t\treward_per_token +\n\t\t\t ((block.number-last_reward_block)*reward_per_block()).divideDecimalRound(total_stake))\n\t\t- reward_tally[account] : 0;\n\t}\n\n\tfunction compute_reward(address account) public view returns (uint256) {\n\t\treturn stake[account].multiplyDecimalRound(reward_per_token) - reward_tally[account];\n\t}\n\n\tfunction withdraw_rewards() public {\n\t\tdistribute();\n\t\tuint256 reward = compute_reward(msg.sender);\n\t\tif ( reward > 0 ) {\n\t\t\treward_tally[msg.sender] = stake[msg.sender].multiplyDecimalRound(reward_per_token);\n\t\t\tDogeShit.mint(msg.sender, reward);\n\t\t\t//DogeShit.transfer(msg.sender, reward);\n\t\t}\n\t}\n\n\tfunction withdraw_stake(uint256 amount) public {\n\t\trequire(amount <= stake[msg.sender], \"Amount requested is more than currently staked.\");\n\t\twithdraw_rewards();\n\t\tstake[msg.sender] = stake[msg.sender] - amount;\n\t\treward_tally[msg.sender] = reward_tally[msg.sender] - reward_per_token.multiplyDecimalRound(amount);\n\t\tDogeShit.transfer(msg.sender, amount);\n\t\ttotal_stake = total_stake - amount;\n\t}\n\n\tfunction reward_per_block() public view returns (uint256) {\n\t\tif ( block.number - genesis < 0 ) {\n\t\t\treturn 0;\n\t\t}\n\t\telse if ( block.number - genesis < 3000000 ) {\n\t\t\treturn 9696*10**18;\n\t\t}\n\t\telse if ( block.number - genesis < 6000000 ) {\n\t\t\treturn 6969*10**18;\n\t\t}\n\t\telse if ( block.number - genesis < 9000000 ) {\n\t\t\treturn 3693*10**18;\n\t\t}\n\t\telse if ( block.number - genesis < 12000000 ) {\n\t\t\treturn 1337*10**18;\n\t\t}\n\t\telse if ( block.number - genesis < 15000000 ) {\n\t\t\treturn 969*10**18;\n\t\t}\n\t\telse if ( block.number - genesis < 17400000 ) {\n\t\t\treturn 420*10**18;\n\t\t}\n\t\telse if ( block.number - genesis < 34800000 ) {\n\t\t\treturn 69*10**18;\n\t\t}\n\t\telse if ( block.number - genesis < 55000000 ) {\n\t\t\treturn 42*10**18;\n\t\t}\n\t\telse if ( block.number - genesis < 75000000 ) {\n\t\t\treturn 13*10**18;\n\t\t}\n\t\telse if ( block.number - genesis < 100000000 ) {\n\t\t\treturn 9*10**18;\n\t\t}\n\t\telse if ( block.number - genesis < 125000000 ) {\n\t\t\treturn 6*10**18;\n\t\t}\n\t\telse if ( block.number - genesis < 150000000 ) {\n\t\t\treturn 4*10**18;\n\t\t}\n\t\telse if ( block.number - genesis < 200000000 ) {\n\t\t\treturn 2*10**18;\n\t\t}\n\t\telse {\n\t\t\treturn 1*10**18;\n\t\t}\n\t}\n}\n",
  "sourcePath": "/home/joe/Work/Crypto/dogeshit/contracts/contracts/ShitFountain.sol",
  "compiler": {
    "name": "solc",
    "version": "0.8.6+commit.11564f7e.Emscripten.clang"
  },
  "schemaVersion": "3.4.1",
  "updatedAt": "2021-07-13T23:34:00.496Z",
  "networkType": "ethereum",
  "devdoc": {
    "kind": "dev",
    "methods": {},
    "version": 1
  },
  "userdoc": {
    "kind": "user",
    "methods": {},
    "version": 1
  }
}