{
  "contractName": "ShitFountain",
  "abi": [
    {
      "inputs": [],
      "name": "DogeShit",
      "outputs": [
        {
          "internalType": "contract IDogeShit",
          "name": "",
          "type": "address"
        }
      ],
      "stateMutability": "view",
      "type": "function",
      "constant": true
    },
    {
      "inputs": [],
      "name": "genesis",
      "outputs": [
        {
          "internalType": "uint256",
          "name": "",
          "type": "uint256"
        }
      ],
      "stateMutability": "view",
      "type": "function",
      "constant": true
    },
    {
      "inputs": [],
      "name": "last_reward_block",
      "outputs": [
        {
          "internalType": "uint256",
          "name": "",
          "type": "uint256"
        }
      ],
      "stateMutability": "view",
      "type": "function",
      "constant": true
    },
    {
      "inputs": [],
      "name": "pit",
      "outputs": [
        {
          "internalType": "address",
          "name": "",
          "type": "address"
        }
      ],
      "stateMutability": "view",
      "type": "function",
      "constant": true
    },
    {
      "inputs": [],
      "name": "reward_per_token",
      "outputs": [
        {
          "internalType": "uint256",
          "name": "",
          "type": "uint256"
        }
      ],
      "stateMutability": "view",
      "type": "function",
      "constant": true
    },
    {
      "inputs": [
        {
          "internalType": "address",
          "name": "",
          "type": "address"
        }
      ],
      "name": "reward_tally",
      "outputs": [
        {
          "internalType": "uint256",
          "name": "",
          "type": "uint256"
        }
      ],
      "stateMutability": "view",
      "type": "function",
      "constant": true
    },
    {
      "inputs": [
        {
          "internalType": "address",
          "name": "",
          "type": "address"
        }
      ],
      "name": "stake",
      "outputs": [
        {
          "internalType": "uint256",
          "name": "",
          "type": "uint256"
        }
      ],
      "stateMutability": "view",
      "type": "function",
      "constant": true
    },
    {
      "inputs": [],
      "name": "total_stake",
      "outputs": [
        {
          "internalType": "uint256",
          "name": "",
          "type": "uint256"
        }
      ],
      "stateMutability": "view",
      "type": "function",
      "constant": true
    },
    {
      "inputs": [
        {
          "internalType": "address",
          "name": "shit_address",
          "type": "address"
        }
      ],
      "name": "init_shit",
      "outputs": [],
      "stateMutability": "nonpayable",
      "type": "function"
    },
    {
      "inputs": [
        {
          "internalType": "uint256",
          "name": "amount",
          "type": "uint256"
        }
      ],
      "name": "deposit_stake",
      "outputs": [],
      "stateMutability": "nonpayable",
      "type": "function"
    },
    {
      "inputs": [],
      "name": "distribute",
      "outputs": [],
      "stateMutability": "nonpayable",
      "type": "function"
    },
    {
      "inputs": [
        {
          "internalType": "address",
          "name": "account",
          "type": "address"
        }
      ],
      "name": "unclaimed_reward",
      "outputs": [
        {
          "internalType": "uint256",
          "name": "",
          "type": "uint256"
        }
      ],
      "stateMutability": "view",
      "type": "function",
      "constant": true
    },
    {
      "inputs": [
        {
          "internalType": "address",
          "name": "account",
          "type": "address"
        }
      ],
      "name": "compute_reward",
      "outputs": [
        {
          "internalType": "uint256",
          "name": "",
          "type": "uint256"
        }
      ],
      "stateMutability": "view",
      "type": "function",
      "constant": true
    },
    {
      "inputs": [],
      "name": "withdraw_rewards",
      "outputs": [],
      "stateMutability": "nonpayable",
      "type": "function"
    },
    {
      "inputs": [
        {
          "internalType": "uint256",
          "name": "amount",
          "type": "uint256"
        }
      ],
      "name": "withdraw_stake",
      "outputs": [],
      "stateMutability": "nonpayable",
      "type": "function"
    },
    {
      "inputs": [],
      "name": "reward_per_block",
      "outputs": [
        {
          "internalType": "uint256",
          "name": "",
          "type": "uint256"
        }
      ],
      "stateMutability": "view",
      "type": "function",
      "constant": true
    }
  ],
  "bytecode": "0x608060405260006002556000600355600060045534801561001f57600080fd5b50610c498061002f6000396000f3fe608060405234801561001057600080fd5b50600436106101005760003560e01c8063b501886f11610097578063e4fc6b6d11610066578063e4fc6b6d14610222578063ee948ea81461022a578063f03c7c6e1461023d578063fb8c50e71461025857600080fd5b8063b501886f146101de578063c20a5997146101f1578063cd22b4f1146101f9578063d462de521461021957600080fd5b8063317f4488116100d3578063317f4488146101a657806361fd0ecd146101af578063a577d5ba146101c2578063a7f0b3de146101d557600080fd5b80630b44d6fe14610105578063241e117d14610120578063264762041461015b5780632fd643d61461017b575b600080fd5b61010d610261565b6040519081526020015b60405180910390f35b61015961012e3660046109fa565b600080546001600160a01b0319166001600160a01b0392909216919091179055436001819055600355565b005b61010d6101693660046109fa565b60056020526000908152604090205481565b60005461018e906001600160a01b031681565b6040516001600160a01b039091168152602001610117565b61010d60035481565b6101596101bd366004610a23565b61044b565b61010d6101d03660046109fa565b610567565b61010d60015481565b6101596101ec366004610a23565b6105b9565b610159610736565b61010d6102073660046109fa565b60066020526000908152604090205481565b61010d60025481565b6101596107f0565b61010d6102383660046109fa565b61085e565b61018e737bdef7bdef7bdef7bdef7bdef7bdef7bdef6e7ad81565b61010d60045481565b600080600154436102729190610a52565b101561027e5750600090565b622dc6c0600154436102909190610a52565b10156102a157506508d186a2c00090565b625b8d80600154436102b39190610a52565b10156102c4575065065698c4fa0090565b62895440600154436102d69190610a52565b10156102e7575065035bd7f4020090565b62b71b00600154436102f99190610a52565b101561030a57506501374b68fa0090565b62e4e1c06001544361031c9190610a52565b101561032c575064e19ce69a0090565b63010980c06001544361033f9190610a52565b101561034f57506461c9f3680090565b6302130180600154436103629190610a52565b10156103725750641010b8720090565b6303473bc0600154436103859190610a52565b101561039557506409c765240090565b63047868c0600154436103a89190610a52565b10156103b85750640306dc420090565b6305f5e100600154436103cb9190610a52565b10156103db5750640218711a0090565b6307735940600154436103ee9190610a52565b10156103fe5750640165a0bc0090565b6308f0d180600154436104119190610a52565b1015610420575063ee6b280090565b630bebc200600154436104339190610a52565b10156104425750637735940090565b50633b9aca0090565b6104536107f0565b3360009081526005602052604090205461046e908290610a69565b3360009081526005602052604090205561049b61049661048d836108cc565b600454906108f2565b610911565b336000908152600660205260409020546104b59190610a69565b33600081815260066020526040808220939093555491516323b872dd60e01b81526004810191909152306024820152604481018390526001600160a01b03909116906323b872dd90606401602060405180830381600087803b15801561051a57600080fd5b505af115801561052e573d6000803e3d6000fd5b505050506040513d601f19601f820116820180604052508101906105529190610a81565b50806002546105619190610a69565b60025550565b6001600160a01b03811660009081526006602090815260408083205460045460059093529083205490916105a99161049691906105a3906108cc565b906108f2565b6105b39190610a52565b92915050565b336000908152600560205260409020548111156106345760405162461bcd60e51b815260206004820152602f60248201527f416d6f756e7420726571756573746564206973206d6f7265207468616e20637560448201526e393932b73a363c9039ba30b5b2b21760891b606482015260840160405180910390fd5b61063c610736565b33600090815260056020526040902054610657908290610a52565b3360009081526005602052604090205561067661049661048d836108cc565b336000908152600660205260409020546106909190610a52565b336000818152600660205260408082209390935554915163a9059cbb60e01b81526004810191909152602481018390526001600160a01b039091169063a9059cbb90604401602060405180830381600087803b1580156106ef57600080fd5b505af1158015610703573d6000803e3d6000fd5b505050506040513d601f19601f820116820180604052508101906107279190610a81565b50806002546105619190610a52565b61073e6107f0565b600061074933610567565b905080156107ed576004543360009081526005602052604090205461077591610496916105a3906108cc565b33600081815260066020526040808220939093555491516340c10f1960e01b81526004810191909152602481018390526001600160a01b03909116906340c10f1990604401600060405180830381600087803b1580156107d457600080fd5b505af11580156107e8573d6000803e3d6000fd5b505050505b50565b60025461080257600060045543600355565b43600354101561085c5761084761081a6002546108cc565b610841610825610261565b6003546108329043610a52565b61083c9190610aa3565b6108cc565b90610971565b6004546108549190610a69565b600455436003555b565b600080600254116108705760006105b3565b6001600160a01b0382166000908152600660205260409020546002546105a990610496906108a19061081a906108cc565b6004546108ae9190610a69565b6001600160a01b0386166000908152600560205260409020546105a3905b60006108da60096018610ac2565b6108e89060ff16600a610bc9565b6105b39083610aa3565b600061090a83836109056018600a610bc9565b610989565b9392505050565b600080600a61092260096018610ac2565b6109309060ff16600a610bc9565b61093a9190610beb565b6109449084610beb565b90506005610953600a83610bff565b1061096657610963600a82610a69565b90505b61090a600a82610beb565b600061090a83836109846018600a610bc9565b6109e1565b600080610997600a84610beb565b6109a18587610aa3565b6109ab9190610beb565b905060056109ba600a83610bff565b106109cd576109ca600a82610a69565b90505b6109d8600a82610beb565b95945050505050565b600080836109ef8487610aa3565b6109a190600a610aa3565b600060208284031215610a0c57600080fd5b81356001600160a01b038116811461090a57600080fd5b600060208284031215610a3557600080fd5b5035919050565b634e487b7160e01b600052601160045260246000fd5b600082821015610a6457610a64610a3c565b500390565b60008219821115610a7c57610a7c610a3c565b500190565b600060208284031215610a9357600080fd5b8151801515811461090a57600080fd5b6000816000190483118215151615610abd57610abd610a3c565b500290565b600060ff821660ff841680821015610adc57610adc610a3c565b90039392505050565b600181815b80851115610b20578160001904821115610b0657610b06610a3c565b80851615610b1357918102915b93841c9390800290610aea565b509250929050565b600082610b37575060016105b3565b81610b44575060006105b3565b8160018114610b5a5760028114610b6457610b80565b60019150506105b3565b60ff841115610b7557610b75610a3c565b50506001821b6105b3565b5060208310610133831016604e8410600b8410161715610ba3575081810a6105b3565b610bad8383610ae5565b8060001904821115610bc157610bc1610a3c565b029392505050565b600061090a8383610b28565b634e487b7160e01b600052601260045260246000fd5b600082610bfa57610bfa610bd5565b500490565b600082610c0e57610c0e610bd5565b50069056fea2646970667358221220117d0195177176af50f6f48edbb900cade5e9a7a09ca7405ceb366e965afd77464736f6c63430008090033",
  "immutableReferences": {},
  "source": "// SPDX-License-Identifier: AGPL-3.0-or-later\n\npragma solidity ^0.8.0;\n\nimport \"./interfaces/IDogeShit.sol\";\nimport \"./DecimalMath.sol\";\n\ncontract ShitFountain {\n\n\tusing DecimalMath for uint256;\n\n\taddress public constant pit = 0x7bDeF7Bdef7BDeF7BDEf7bDef7bdef7bdeF6E7AD;\n\n\tIDogeShit public DogeShit;\n\n\tuint256 public genesis;\n\tuint256 public total_stake = 0; // int\n\tuint256 public last_reward_block = 0; // int\n\tuint256 public reward_per_token = 0; // PreciseDecimal\n\n\tmapping(address => uint256) public stake; // int\n\tmapping(address => uint256) public reward_tally; //int\n\n\tfunction init_shit(address shit_address) public {\n\t\tDogeShit = IDogeShit(shit_address);\n\t\tgenesis = block.number;\n\t\tlast_reward_block = block.number;\n\t}\n\n\tfunction deposit_stake(uint256 amount) public {\n\t\tdistribute();\n\t\tstake[msg.sender] = stake[msg.sender] + amount;\n\t\treward_tally[msg.sender] = reward_tally[msg.sender] + reward_per_token.multiplyDecimalRoundPrecise(amount.decimalToPreciseDecimal()).preciseDecimalToDecimal();\n\t\tDogeShit.transferFrom(msg.sender, address(this), amount);\n\t\ttotal_stake = total_stake + amount;\n\t}\n\n\tfunction distribute() public {\n\t\tif (total_stake == 0) {\n\t\t\treward_per_token = 0;\n\t\t\tlast_reward_block = block.number;\n\t\t}\n\t\telse if ( last_reward_block < block.number) {\n\t\t\t/*\n\t\t\tuint256 rpb = reward_per_block();\n\t\t  uint256 blocks = block.number - last_reward_block;\n\t\t  uint256 rewards = blocks*rpb;\n\t\t\tuint256 preciseNewRewards = rewards.divideDecimalRoundPrecise(total_stake);\n\t\t  reward_per_token = reward_per_token + preciseNewRewards;\n\t\t\t*/\n\t\t\treward_per_token = reward_per_token +\n\t\t\t\t((block.number - last_reward_block) * reward_per_block()).decimalToPreciseDecimal().divideDecimalRoundPrecise(total_stake.decimalToPreciseDecimal());\n\t\t\tlast_reward_block = block.number;\n\t\t}\n\t}\n\n\tfunction unclaimed_reward(address account) public view returns (uint256) {\n\t\t/*\n\t\tif ( total_stake == 0 ) {\n\t\t\treturn 0;\n\t\t}\n\t\tuint256 rpb = reward_per_block();\n\t\tuint256 blocks = block.number - last_reward_block;\n\t\tuint256 rewards = blocks*rpb;\n\t\tuint256 _reward_per_token = reward_per_token + rewards.divideDecimalRoundPrecise(total_stake);\n\t\tuint256 _total_rewards = stake[account].multiplyDecimalRoundPrecise(_reward_per_token);\n\t\treturn preciseDecimalToDecimal(_total_rewards) - reward_tally[account];\n\t\treturn stake[account].multiplyDecimalRound(_reward_per_token) - reward_tally[account];\n\t\t*/\n\t\treturn total_stake > 0 ? (stake[account].decimalToPreciseDecimal().multiplyDecimalRoundPrecise(\n\t\t\treward_per_token +\n\t\t\t ((block.number-last_reward_block) * reward_per_block()).decimalToPreciseDecimal().divideDecimalRoundPrecise(total_stake.decimalToPreciseDecimal()))).preciseDecimalToDecimal()\n\t\t- reward_tally[account] : 0;\n\t}\n\n\tfunction compute_reward(address account) public view returns (uint256) {\n\t\treturn (stake[account].decimalToPreciseDecimal().multiplyDecimalRoundPrecise(reward_per_token)).preciseDecimalToDecimal() - reward_tally[account];\n\t}\n\n\tfunction withdraw_rewards() public {\n\t\tdistribute();\n\t\tuint256 reward = compute_reward(msg.sender);\n\t\tif ( reward > 0 ) {\n\t\t\treward_tally[msg.sender] = (stake[msg.sender].decimalToPreciseDecimal().multiplyDecimalRoundPrecise(reward_per_token)).preciseDecimalToDecimal();\n\t\t\tDogeShit.mint(msg.sender, reward);\n\t\t\t//DogeShit.transfer(msg.sender, reward);\n\t\t}\n\t}\n\n\tfunction withdraw_stake(uint256 amount) public {\n\t\trequire(amount <= stake[msg.sender], \"Amount requested is more than currently staked.\");\n\t\twithdraw_rewards();\n\t\tstake[msg.sender] = stake[msg.sender] - amount;\n\t\treward_tally[msg.sender] = reward_tally[msg.sender] - (reward_per_token.multiplyDecimalRoundPrecise(amount.decimalToPreciseDecimal())).preciseDecimalToDecimal();\n\t\tDogeShit.transfer(msg.sender, amount);\n\t\ttotal_stake = total_stake - amount;\n\t}\n\n\tfunction reward_per_block() public view returns (uint256) {\n\t\tif ( block.number - genesis < 0 ) {\n\t\t\treturn 0;\n\t\t}\n\t\telse if ( block.number - genesis < 3000000 ) {\n\t\t\treturn 9696*10**9;\n\t\t}\n\t\telse if ( block.number - genesis < 6000000 ) {\n\t\t\treturn 6969*10**9;\n\t\t}\n\t\telse if ( block.number - genesis < 9000000 ) {\n\t\t\treturn 3693*10**9;\n\t\t}\n\t\telse if ( block.number - genesis < 12000000 ) {\n\t\t\treturn 1337*10**9;\n\t\t}\n\t\telse if ( block.number - genesis < 15000000 ) {\n\t\t\treturn 969*10**9;\n\t\t}\n\t\telse if ( block.number - genesis < 17400000 ) {\n\t\t\treturn 420*10**9;\n\t\t}\n\t\telse if ( block.number - genesis < 34800000 ) {\n\t\t\treturn 69*10**9;\n\t\t}\n\t\telse if ( block.number - genesis < 55000000 ) {\n\t\t\treturn 42*10**9;\n\t\t}\n\t\telse if ( block.number - genesis < 75000000 ) {\n\t\t\treturn 13*10**9;\n\t\t}\n\t\telse if ( block.number - genesis < 100000000 ) {\n\t\t\treturn 9*10**9;\n\t\t}\n\t\telse if ( block.number - genesis < 125000000 ) {\n\t\t\treturn 6*10**9;\n\t\t}\n\t\telse if ( block.number - genesis < 150000000 ) {\n\t\t\treturn 4*10**9;\n\t\t}\n\t\telse if ( block.number - genesis < 200000000 ) {\n\t\t\treturn 2*10**9;\n\t\t}\n\t\telse {\n\t\t\treturn 1*10**9;\n\t\t}\n\t}\n}\n",
  "sourcePath": "/home/joe/Work/Crypto/dogeshit/contracts/contracts/ShitFountain.sol",
  "compiler": {
    "name": "solc",
    "version": "0.8.9+commit.e5eed63a.Emscripten.clang"
  },
  "schemaVersion": "3.4.1",
  "updatedAt": "2021-10-01T02:45:17.983Z",
  "networkType": "ethereum",
  "devdoc": {
    "kind": "dev",
    "methods": {},
    "version": 1
  },
  "userdoc": {
    "kind": "user",
    "methods": {},
    "version": 1
  }
}