{
  "contractName": "ShitLord",
  "abi": [
    {
      "inputs": [
        {
          "internalType": "address",
          "name": "_doge_adder",
          "type": "address"
        },
        {
          "internalType": "address",
          "name": "_doge_killer",
          "type": "address"
        },
        {
          "internalType": "address[]",
          "name": "_doges",
          "type": "address[]"
        }
      ],
      "stateMutability": "nonpayable",
      "type": "constructor"
    },
    {
      "anonymous": false,
      "inputs": [
        {
          "indexed": false,
          "internalType": "address",
          "name": "doge_address",
          "type": "address"
        }
      ],
      "name": "AddedDogeContractAddress",
      "type": "event"
    },
    {
      "anonymous": false,
      "inputs": [
        {
          "indexed": false,
          "internalType": "address",
          "name": "doge_address",
          "type": "address"
        },
        {
          "indexed": false,
          "internalType": "uint256",
          "name": "amount",
          "type": "uint256"
        }
      ],
      "name": "DogeBurned",
      "type": "event"
    },
    {
      "anonymous": false,
      "inputs": [
        {
          "indexed": false,
          "internalType": "address",
          "name": "doge_address",
          "type": "address"
        }
      ],
      "name": "RemovedDogeContractAddress",
      "type": "event"
    },
    {
      "anonymous": false,
      "inputs": [
        {
          "indexed": true,
          "internalType": "bytes32",
          "name": "role",
          "type": "bytes32"
        },
        {
          "indexed": true,
          "internalType": "bytes32",
          "name": "previousAdminRole",
          "type": "bytes32"
        },
        {
          "indexed": true,
          "internalType": "bytes32",
          "name": "newAdminRole",
          "type": "bytes32"
        }
      ],
      "name": "RoleAdminChanged",
      "type": "event"
    },
    {
      "anonymous": false,
      "inputs": [
        {
          "indexed": true,
          "internalType": "bytes32",
          "name": "role",
          "type": "bytes32"
        },
        {
          "indexed": true,
          "internalType": "address",
          "name": "account",
          "type": "address"
        },
        {
          "indexed": true,
          "internalType": "address",
          "name": "sender",
          "type": "address"
        }
      ],
      "name": "RoleGranted",
      "type": "event"
    },
    {
      "anonymous": false,
      "inputs": [
        {
          "indexed": true,
          "internalType": "bytes32",
          "name": "role",
          "type": "bytes32"
        },
        {
          "indexed": true,
          "internalType": "address",
          "name": "account",
          "type": "address"
        },
        {
          "indexed": true,
          "internalType": "address",
          "name": "sender",
          "type": "address"
        }
      ],
      "name": "RoleRevoked",
      "type": "event"
    },
    {
      "inputs": [],
      "name": "DEFAULT_ADMIN_ROLE",
      "outputs": [
        {
          "internalType": "bytes32",
          "name": "",
          "type": "bytes32"
        }
      ],
      "stateMutability": "view",
      "type": "function",
      "constant": true
    },
    {
      "inputs": [],
      "name": "DOGE_ADDER_ROLE",
      "outputs": [
        {
          "internalType": "bytes32",
          "name": "",
          "type": "bytes32"
        }
      ],
      "stateMutability": "view",
      "type": "function",
      "constant": true
    },
    {
      "inputs": [],
      "name": "DOGE_KILLER_ROLE",
      "outputs": [
        {
          "internalType": "bytes32",
          "name": "",
          "type": "bytes32"
        }
      ],
      "stateMutability": "view",
      "type": "function",
      "constant": true
    },
    {
      "inputs": [],
      "name": "INIT",
      "outputs": [
        {
          "internalType": "bytes32",
          "name": "",
          "type": "bytes32"
        }
      ],
      "stateMutability": "view",
      "type": "function",
      "constant": true
    },
    {
      "inputs": [
        {
          "internalType": "uint256",
          "name": "",
          "type": "uint256"
        }
      ],
      "name": "doge_contracts",
      "outputs": [
        {
          "internalType": "contract IERC20",
          "name": "",
          "type": "address"
        }
      ],
      "stateMutability": "view",
      "type": "function",
      "constant": true
    },
    {
      "inputs": [
        {
          "internalType": "bytes32",
          "name": "role",
          "type": "bytes32"
        }
      ],
      "name": "getRoleAdmin",
      "outputs": [
        {
          "internalType": "bytes32",
          "name": "",
          "type": "bytes32"
        }
      ],
      "stateMutability": "view",
      "type": "function",
      "constant": true
    },
    {
      "inputs": [
        {
          "internalType": "bytes32",
          "name": "role",
          "type": "bytes32"
        },
        {
          "internalType": "address",
          "name": "account",
          "type": "address"
        }
      ],
      "name": "grantRole",
      "outputs": [],
      "stateMutability": "nonpayable",
      "type": "function"
    },
    {
      "inputs": [
        {
          "internalType": "bytes32",
          "name": "role",
          "type": "bytes32"
        },
        {
          "internalType": "address",
          "name": "account",
          "type": "address"
        }
      ],
      "name": "hasRole",
      "outputs": [
        {
          "internalType": "bool",
          "name": "",
          "type": "bool"
        }
      ],
      "stateMutability": "view",
      "type": "function",
      "constant": true
    },
    {
      "inputs": [],
      "name": "init",
      "outputs": [
        {
          "internalType": "address",
          "name": "",
          "type": "address"
        }
      ],
      "stateMutability": "view",
      "type": "function",
      "constant": true
    },
    {
      "inputs": [],
      "name": "pit",
      "outputs": [
        {
          "internalType": "address",
          "name": "",
          "type": "address"
        }
      ],
      "stateMutability": "view",
      "type": "function",
      "constant": true
    },
    {
      "inputs": [
        {
          "internalType": "bytes32",
          "name": "role",
          "type": "bytes32"
        },
        {
          "internalType": "address",
          "name": "account",
          "type": "address"
        }
      ],
      "name": "renounceRole",
      "outputs": [],
      "stateMutability": "nonpayable",
      "type": "function"
    },
    {
      "inputs": [
        {
          "internalType": "bytes32",
          "name": "role",
          "type": "bytes32"
        },
        {
          "internalType": "address",
          "name": "account",
          "type": "address"
        }
      ],
      "name": "revokeRole",
      "outputs": [],
      "stateMutability": "nonpayable",
      "type": "function"
    },
    {
      "inputs": [
        {
          "internalType": "bytes4",
          "name": "interfaceId",
          "type": "bytes4"
        }
      ],
      "name": "supportsInterface",
      "outputs": [
        {
          "internalType": "bool",
          "name": "",
          "type": "bool"
        }
      ],
      "stateMutability": "view",
      "type": "function",
      "constant": true
    },
    {
      "inputs": [
        {
          "internalType": "address",
          "name": "_dogeshit_address",
          "type": "address"
        }
      ],
      "name": "set_dogeshit",
      "outputs": [],
      "stateMutability": "nonpayable",
      "type": "function"
    },
    {
      "inputs": [
        {
          "internalType": "address",
          "name": "_doge_token_address",
          "type": "address"
        },
        {
          "internalType": "uint256",
          "name": "amount",
          "type": "uint256"
        }
      ],
      "name": "make_shit",
      "outputs": [],
      "stateMutability": "nonpayable",
      "type": "function"
    },
    {
      "inputs": [
        {
          "internalType": "address",
          "name": "_doge_contract",
          "type": "address"
        }
      ],
      "name": "register_doge_contract",
      "outputs": [],
      "stateMutability": "nonpayable",
      "type": "function"
    },
    {
      "inputs": [
        {
          "internalType": "address",
          "name": "_doge_contract",
          "type": "address"
        }
      ],
      "name": "remove_doge_contract",
      "outputs": [],
      "stateMutability": "nonpayable",
      "type": "function"
    }
  ],
  "bytecode": "0x60806040523480156200001157600080fd5b50604051620012f2380380620012f2833981016040819052620000349162000269565b620000607fdf8a5cb74c16873fd76951a0fdf260a593f365650ad12a701501dc4fb702d67b846200019c565b6200008c7f09dcbd6b767852c337f1bf803ef447812d5ef272514ba5962e86d496c401cc84836200019c565b620000b87fb687035e21e37544cf8aac31e9d86cbec8e9d12dfd1dc987a4f3d1d8f64f764d336200019c565b60005b815181101562000192576002828281518110620000dc57620000dc62000394565b60209081029190910181015182546001810184556000938452919092200180546001600160a01b0319166001600160a01b0390921691909117905581517f541cab3b6af982d396e2e32f584d672939e291d0e15b1511cc4926a1dfbeeb019083908390811062000150576200015062000394565b60200260200101516040516200017591906001600160a01b0391909116815260200190565b60405180910390a18062000189816200036a565b915050620000bb565b50505050620003c0565b620001a88282620001ac565b5050565b6000828152602081815260408083206001600160a01b038516845290915290205460ff16620001a8576000828152602081815260408083206001600160a01b03851684529091529020805460ff19166001179055620002083390565b6001600160a01b0316816001600160a01b0316837f2f8788117e7eff1d82e926ec794901d17c78024a50270940304540a733656f0d60405160405180910390a45050565b80516001600160a01b03811681146200026457600080fd5b919050565b6000806000606084860312156200027f57600080fd5b6200028a846200024c565b925060206200029b8186016200024c565b60408601519093506001600160401b0380821115620002b957600080fd5b818701915087601f830112620002ce57600080fd5b815181811115620002e357620002e3620003aa565b8060051b604051601f19603f830116810181811085821117156200030b576200030b620003aa565b604052828152858101935084860182860187018c10156200032b57600080fd5b600095505b83861015620003595762000344816200024c565b85526001959095019493860193860162000330565b508096505050505050509250925092565b60006000198214156200038d57634e487b7160e01b600052601160045260246000fd5b5060010190565b634e487b7160e01b600052603260045260246000fd5b634e487b7160e01b600052604160045260246000fd5b610f2280620003d06000396000f3fe608060405234801561001057600080fd5b506004361061010b5760003560e01c8063940c1bf0116100a2578063e1c7392a11610071578063e1c7392a14610267578063ea6439141461027a578063f03c7c6e146102a1578063f64803e8146102bc578063ffc69ad3146102e357600080fd5b8063940c1bf0146101f55780639ba63f9114610225578063a217fddf1461024c578063d547741f1461025457600080fd5b806336568abe116100de57806336568abe146101915780634368f260146101a4578063859ac946146101cf57806391d14854146101e257600080fd5b806301ffc9a71461011057806315583ec014610138578063248a9ca31461014d5780632f2ff15d1461017e575b600080fd5b61012361011e366004610d3f565b6102f6565b60405190151581526020015b60405180910390f35b61014b610146366004610c93565b61032d565b005b61017061015b366004610cfa565b60009081526020819052604090206001015490565b60405190815260200161012f565b61014b61018c366004610d13565b610495565b61014b61019f366004610d13565b6104c0565b6101b76101b2366004610cfa565b61053e565b6040516001600160a01b03909116815260200161012f565b61014b6101dd366004610cae565b610568565b6101236101f0366004610d13565b61084a565b61014b610203366004610c93565b600380546001600160a01b0319166001600160a01b0392909216919091179055565b6101707f09dcbd6b767852c337f1bf803ef447812d5ef272514ba5962e86d496c401cc8481565b610170600081565b61014b610262366004610d13565b610873565b6001546101b7906001600160a01b031681565b6101707fb687035e21e37544cf8aac31e9d86cbec8e9d12dfd1dc987a4f3d1d8f64f764d81565b6101b7737bdef7bdef7bdef7bdef7bdef7bdef7bdef6e7ad81565b6101707fdf8a5cb74c16873fd76951a0fdf260a593f365650ad12a701501dc4fb702d67b81565b61014b6102f1366004610c93565b610899565b60006001600160e01b03198216637965db0b60e01b148061032757506301ffc9a760e01b6001600160e01b03198316145b92915050565b7fdf8a5cb74c16873fd76951a0fdf260a593f365650ad12a701501dc4fb702d67b6103588133610987565b60005b60025481101561040f57826001600160a01b03166002828154811061038257610382610ec0565b6000918252602090912001546001600160a01b031614156103fd5760405162461bcd60e51b815260206004820152602a60248201527f5468617420646f676520636f6e74726163742077617320616c7265616479207260448201526932b3b4b9ba32b932b21760b11b60648201526084015b60405180910390fd5b8061040781610e8f565b91505061035b565b50600280546001810182556000919091527f405787fa12a823e0f2b7631cc41b3ba8828b3321ca811111fa75cd3aa3bb5ace0180546001600160a01b0319166001600160a01b0384169081179091556040519081527f541cab3b6af982d396e2e32f584d672939e291d0e15b1511cc4926a1dfbeeb019060200160405180910390a15050565b6000828152602081905260409020600101546104b18133610987565b6104bb83836109eb565b505050565b6001600160a01b03811633146105305760405162461bcd60e51b815260206004820152602f60248201527f416363657373436f6e74726f6c3a2063616e206f6e6c792072656e6f756e636560448201526e103937b632b9903337b91039b2b63360891b60648201526084016103f4565b61053a8282610a6f565b5050565b6002818154811061054e57600080fd5b6000918252602090912001546001600160a01b0316905081565b60008060005b6002548110156105ce57846001600160a01b03166002828154811061059557610595610ec0565b6000918252602090912001546001600160a01b031614156105bc57600192508091506105ce565b806105c681610e8f565b91505061056e565b50816106425760405162461bcd60e51b815260206004820152603b60248201527f546865206465736972656420646f676520636f6e7472616374206973206e6f7460448201527f2061626c6520746f206265206d61646520696e746f20736869742e000000000060648201526084016103f4565b6002818154811061065557610655610ec0565b6000918252602090912001546040516323b872dd60e01b8152336004820152306024820152604481018590526001600160a01b03909116906323b872dd90606401602060405180830381600087803b1580156106b057600080fd5b505af11580156106c4573d6000803e3d6000fd5b505050506040513d601f19601f820116820180604052508101906106e89190610cd8565b506003546040516340c10f1960e01b8152336004820152602481018590526001600160a01b03909116906340c10f1990604401600060405180830381600087803b15801561073557600080fd5b505af1158015610749573d6000803e3d6000fd5b505050506002818154811061076057610760610ec0565b60009182526020909120015460405163a9059cbb60e01b8152737bdef7bdef7bdef7bdef7bdef7bdef7bdef6e7ad6004820152602481018590526001600160a01b039091169063a9059cbb90604401602060405180830381600087803b1580156107c957600080fd5b505af11580156107dd573d6000803e3d6000fd5b505050506040513d601f19601f820116820180604052508101906108019190610cd8565b50604080516001600160a01b0386168152602081018590527f20ca60e3f5d81c6ef116a9f1ff71fac0b802f0d9b38db575cad9c1e3084a20fd910160405180910390a150505050565b6000918252602082815260408084206001600160a01b0393909316845291905290205460ff1690565b60008281526020819052604090206001015461088f8133610987565b6104bb8383610a6f565b7f09dcbd6b767852c337f1bf803ef447812d5ef272514ba5962e86d496c401cc846108c48133610987565b60005b6002548110156104bb57826001600160a01b0316600282815481106108ee576108ee610ec0565b6000918252602090912001546001600160a01b03161415610975576002818154811061091c5761091c610ec0565b60009182526020918290200180546001600160a01b03191690556040516001600160a01b03851681527f84d25155b99b552aab6f0f4486d10d28d667bcc9a338ae66fc3ca3a1801e73ca910160405180910390a1505050565b8061097f81610e8f565b9150506108c7565b610991828261084a565b61053a576109a9816001600160a01b03166014610ad4565b6109b4836020610ad4565b6040516020016109c5929190610d69565b60408051601f198184030181529082905262461bcd60e51b82526103f491600401610dde565b6109f5828261084a565b61053a576000828152602081815260408083206001600160a01b03851684529091529020805460ff19166001179055610a2b3390565b6001600160a01b0316816001600160a01b0316837f2f8788117e7eff1d82e926ec794901d17c78024a50270940304540a733656f0d60405160405180910390a45050565b610a79828261084a565b1561053a576000828152602081815260408083206001600160a01b0385168085529252808320805460ff1916905551339285917ff6391f5c32d9c69d2a47ea670b442974b53935d1edc7fd64eb21e047a839171b9190a45050565b60606000610ae3836002610e29565b610aee906002610e11565b67ffffffffffffffff811115610b0657610b06610ed6565b6040519080825280601f01601f191660200182016040528015610b30576020820181803683370190505b509050600360fc1b81600081518110610b4b57610b4b610ec0565b60200101906001600160f81b031916908160001a905350600f60fb1b81600181518110610b7a57610b7a610ec0565b60200101906001600160f81b031916908160001a9053506000610b9e846002610e29565b610ba9906001610e11565b90505b6001811115610c21576f181899199a1a9b1b9c1cb0b131b232b360811b85600f1660108110610bdd57610bdd610ec0565b1a60f81b828281518110610bf357610bf3610ec0565b60200101906001600160f81b031916908160001a90535060049490941c93610c1a81610e78565b9050610bac565b508315610c705760405162461bcd60e51b815260206004820181905260248201527f537472696e67733a20686578206c656e67746820696e73756666696369656e7460448201526064016103f4565b9392505050565b80356001600160a01b0381168114610c8e57600080fd5b919050565b600060208284031215610ca557600080fd5b610c7082610c77565b60008060408385031215610cc157600080fd5b610cca83610c77565b946020939093013593505050565b600060208284031215610cea57600080fd5b81518015158114610c7057600080fd5b600060208284031215610d0c57600080fd5b5035919050565b60008060408385031215610d2657600080fd5b82359150610d3660208401610c77565b90509250929050565b600060208284031215610d5157600080fd5b81356001600160e01b031981168114610c7057600080fd5b7f416363657373436f6e74726f6c3a206163636f756e7420000000000000000000815260008351610da1816017850160208801610e48565b7001034b99036b4b9b9b4b733903937b6329607d1b6017918401918201528351610dd2816028840160208801610e48565b01602801949350505050565b6020815260008251806020840152610dfd816040850160208701610e48565b601f01601f19169190910160400192915050565b60008219821115610e2457610e24610eaa565b500190565b6000816000190483118215151615610e4357610e43610eaa565b500290565b60005b83811015610e63578181015183820152602001610e4b565b83811115610e72576000848401525b50505050565b600081610e8757610e87610eaa565b506000190190565b6000600019821415610ea357610ea3610eaa565b5060010190565b634e487b7160e01b600052601160045260246000fd5b634e487b7160e01b600052603260045260246000fd5b634e487b7160e01b600052604160045260246000fdfea2646970667358221220df8b73e3d0692a190fa5e8be90aa7fbefaa16484c0b586af11bcb6526096108464736f6c63430008060033",
  "immutableReferences": {},
  "source": "// SPDX-License-Identifier: AGPL-3.0-or-later\n\npragma solidity ^0.8.0;\n\nimport \"@openzeppelin/contracts/access/AccessControl.sol\";\nimport \"@openzeppelin/contracts/token/ERC20/IERC20.sol\";\n\nimport \"./interfaces/IDogeShit.sol\";\n\ncontract ShitLord is AccessControl {\n\n\taddress public init;\n\taddress public constant pit = 0x7bDeF7Bdef7BDeF7BDEf7bDef7bdef7bdeF6E7AD;\n\n\tbytes32 public constant INIT = keccak256(\"INIT\");\n\tbytes32 public constant DOGE_ADDER_ROLE = keccak256(\"DOGE_ADDER_ROLE\");\n\tbytes32 public constant DOGE_KILLER_ROLE = keccak256(\"DOGE_KILLER_ROLE\");\n\n\tIERC20[] public doge_contracts;\n\n\tIDogeShit internal _dogeshit;\n\n\tevent DogeBurned(address doge_address, uint256 amount);\n\tevent AddedDogeContractAddress(address doge_address);\n\tevent RemovedDogeContractAddress(address doge_address);\n\n\tconstructor(address _doge_adder, address _doge_killer, address[] memory _doges) {\n\t\t\t_setupRole(DOGE_ADDER_ROLE, _doge_adder);\n\t\t\t_setupRole(DOGE_KILLER_ROLE, _doge_killer);\n\t\t\t_setupRole(INIT, msg.sender);\n\n\t\t\tfor (uint i=0; i < _doges.length; i++) {\n\t\t\t\tdoge_contracts.push(IERC20(_doges[i]));\n\t\t\t\temit AddedDogeContractAddress(_doges[i]);\n\t\t\t}\n\t}\n\n\tfunction set_dogeshit(address _dogeshit_address) public {\n\t\t_dogeshit = IDogeShit(_dogeshit_address);\n\t}\n\n\tfunction make_shit(address _doge_token_address, uint256 amount) public {\n\t\tbool _exists = false;\n\t\tuint256 _idx = 0;\n\t\tfor (uint i=0; i < doge_contracts.length; i++) {\n\t\t\tif (address(doge_contracts[i]) == _doge_token_address) {\n\t\t\t\t_exists = true;\n\t\t\t\t_idx = i;\n\t\t\t\tbreak;\n\t\t\t}\n\t\t}\n\t\trequire(_exists, \"The desired doge contract is not able to be made into shit.\");\n\n\t\tdoge_contracts[_idx].transferFrom(msg.sender, address(this), amount);\n\t\t_dogeshit.mint(msg.sender, amount);\n\t\tdoge_contracts[_idx].transfer(pit, amount);\n\t\temit DogeBurned(_doge_token_address, amount);\n\t}\n\n\tfunction register_doge_contract(address _doge_contract) public onlyRole(DOGE_ADDER_ROLE) {\n\t\tfor (uint i=0; i < doge_contracts.length; i++) {\n\t\t\tif (address(doge_contracts[i]) == _doge_contract) {\n\t\t\t\trevert(\"That doge contract was already registered.\");\n\t\t\t}\n\t\t}\n\t\tdoge_contracts.push(IERC20(_doge_contract));\n\t\temit AddedDogeContractAddress(_doge_contract);\n\t}\n\n\tfunction remove_doge_contract(address _doge_contract) public onlyRole(DOGE_KILLER_ROLE) {\n\t\tfor (uint i=0; i < doge_contracts.length; i++) {\n\t\t\tif (address(doge_contracts[i]) == _doge_contract) {\n\t\t\t\tdelete doge_contracts[i];\n\t\t\t\temit RemovedDogeContractAddress(_doge_contract);\n\t\t\t\tbreak;\n\t\t\t}\n\t\t}\n\t}\n}\n\n",
  "sourcePath": "/home/joe/Work/Crypto/dogeshit/contracts/contracts/ShitLord.sol",
  "compiler": {
    "name": "solc",
    "version": "0.8.6+commit.11564f7e.Emscripten.clang"
  },
  "schemaVersion": "3.4.1",
  "updatedAt": "2021-07-13T23:34:00.484Z",
  "networkType": "ethereum",
  "devdoc": {
    "kind": "dev",
    "methods": {
      "getRoleAdmin(bytes32)": {
        "details": "Returns the admin role that controls `role`. See {grantRole} and {revokeRole}. To change a role's admin, use {_setRoleAdmin}."
      },
      "grantRole(bytes32,address)": {
        "details": "Grants `role` to `account`. If `account` had not been already granted `role`, emits a {RoleGranted} event. Requirements: - the caller must have ``role``'s admin role."
      },
      "hasRole(bytes32,address)": {
        "details": "Returns `true` if `account` has been granted `role`."
      },
      "renounceRole(bytes32,address)": {
        "details": "Revokes `role` from the calling account. Roles are often managed via {grantRole} and {revokeRole}: this function's purpose is to provide a mechanism for accounts to lose their privileges if they are compromised (such as when a trusted device is misplaced). If the calling account had been granted `role`, emits a {RoleRevoked} event. Requirements: - the caller must be `account`."
      },
      "revokeRole(bytes32,address)": {
        "details": "Revokes `role` from `account`. If `account` had been granted `role`, emits a {RoleRevoked} event. Requirements: - the caller must have ``role``'s admin role."
      },
      "supportsInterface(bytes4)": {
        "details": "See {IERC165-supportsInterface}."
      }
    },
    "version": 1
  },
  "userdoc": {
    "kind": "user",
    "methods": {},
    "version": 1
  }
}